{
  "contractName": "AdminPanel",
  "abi": [
    {
      "inputs": [],
      "stateMutability": "nonpayable",
      "type": "constructor"
    },
    {
      "anonymous": false,
      "inputs": [
        {
          "indexed": false,
          "internalType": "uint256",
          "name": "candidateID",
          "type": "uint256"
        },
        {
          "indexed": false,
          "internalType": "string",
          "name": "firstName",
          "type": "string"
        },
        {
          "indexed": false,
          "internalType": "string",
          "name": "lastName",
          "type": "string"
        },
        {
          "indexed": false,
          "internalType": "string",
          "name": "position",
          "type": "string"
        },
        {
          "indexed": false,
          "internalType": "string",
          "name": "addressInfo",
          "type": "string"
        },
        {
          "indexed": false,
          "internalType": "string",
          "name": "profileImageHash",
          "type": "string"
        },
        {
          "indexed": false,
          "internalType": "string",
          "name": "logoImageHash",
          "type": "string"
        }
      ],
      "name": "CandidateAdded",
      "type": "event"
    },
    {
      "inputs": [],
      "name": "candidateCount",
      "outputs": [
        {
          "internalType": "uint256",
          "name": "",
          "type": "uint256"
        }
      ],
      "stateMutability": "view",
      "type": "function",
      "constant": true
    },
    {
      "inputs": [
        {
          "internalType": "uint256",
          "name": "",
          "type": "uint256"
        }
      ],
      "name": "candidateIDs",
      "outputs": [
        {
          "internalType": "uint256",
          "name": "",
          "type": "uint256"
        }
      ],
      "stateMutability": "view",
      "type": "function",
      "constant": true
    },
    {
      "inputs": [
        {
          "internalType": "uint256",
          "name": "",
          "type": "uint256"
        }
      ],
      "name": "candidates",
      "outputs": [
        {
          "internalType": "string",
          "name": "firstName",
          "type": "string"
        },
        {
          "internalType": "string",
          "name": "lastName",
          "type": "string"
        },
        {
          "internalType": "string",
          "name": "position",
          "type": "string"
        },
        {
          "internalType": "string",
          "name": "addressInfo",
          "type": "string"
        },
        {
          "internalType": "string",
          "name": "profileImageHash",
          "type": "string"
        },
        {
          "internalType": "string",
          "name": "logoImageHash",
          "type": "string"
        },
        {
          "internalType": "uint256",
          "name": "voteCount",
          "type": "uint256"
        }
      ],
      "stateMutability": "view",
      "type": "function",
      "constant": true
    },
    {
      "inputs": [],
      "name": "electionAuthority",
      "outputs": [
        {
          "internalType": "address",
          "name": "",
          "type": "address"
        }
      ],
      "stateMutability": "view",
      "type": "function",
      "constant": true
    },
    {
      "inputs": [
        {
          "internalType": "string",
          "name": "firstName",
          "type": "string"
        },
        {
          "internalType": "string",
          "name": "lastName",
          "type": "string"
        },
        {
          "internalType": "string",
          "name": "position",
          "type": "string"
        },
        {
          "internalType": "string",
          "name": "addressInfo",
          "type": "string"
        },
        {
          "internalType": "string",
          "name": "profileImageHash",
          "type": "string"
        },
        {
          "internalType": "string",
          "name": "logoImageHash",
          "type": "string"
        }
      ],
      "name": "addCandidate",
      "outputs": [],
      "stateMutability": "nonpayable",
      "type": "function"
    },
    {
      "inputs": [
        {
          "internalType": "uint256",
          "name": "candidateID",
          "type": "uint256"
        }
      ],
      "name": "getCandidate",
      "outputs": [
        {
          "internalType": "string",
          "name": "firstName",
          "type": "string"
        },
        {
          "internalType": "string",
          "name": "lastName",
          "type": "string"
        },
        {
          "internalType": "string",
          "name": "position",
          "type": "string"
        },
        {
          "internalType": "string",
          "name": "addressInfo",
          "type": "string"
        },
        {
          "internalType": "string",
          "name": "profileImageHash",
          "type": "string"
        },
        {
          "internalType": "string",
          "name": "logoImageHash",
          "type": "string"
        },
        {
          "internalType": "uint256",
          "name": "voteCount",
          "type": "uint256"
        }
      ],
      "stateMutability": "view",
      "type": "function",
      "constant": true
    },
    {
      "inputs": [],
      "name": "getAllCandidates",
      "outputs": [
        {
          "components": [
            {
              "internalType": "string",
              "name": "firstName",
              "type": "string"
            },
            {
              "internalType": "string",
              "name": "lastName",
              "type": "string"
            },
            {
              "internalType": "string",
              "name": "position",
              "type": "string"
            },
            {
              "internalType": "string",
              "name": "addressInfo",
              "type": "string"
            },
            {
              "internalType": "string",
              "name": "profileImageHash",
              "type": "string"
            },
            {
              "internalType": "string",
              "name": "logoImageHash",
              "type": "string"
            },
            {
              "internalType": "uint256",
              "name": "voteCount",
              "type": "uint256"
            }
          ],
          "internalType": "struct AdminPanel.Candidate[]",
          "name": "",
          "type": "tuple[]"
        }
      ],
      "stateMutability": "view",
      "type": "function",
      "constant": true
    }
  ],
  "bytecode": "0x6080604052600060025534801561001557600080fd5b50336000806101000a81548173ffffffffffffffffffffffffffffffffffffffff021916908373ffffffffffffffffffffffffffffffffffffffff16021790555061195c806100656000396000f3fe608060405234801561001057600080fd5b506004361061007d5760003560e01c806370a56eed1161005b57806370a56eed1461010c578063a9a981a31461013c578063bbdac3231461015a578063dc46d6ea146101765761007d565b80632e6997fe146100825780633477ee2e146100a057806335b8e820146100d6575b600080fd5b61008a610194565b6040516100979190611522565b60405180910390f35b6100ba60048036038101906100b59190611291565b61065a565b6040516100cd9796959493929190611544565b60405180910390f35b6100f060048036038101906100eb9190611291565b6109cc565b6040516101039796959493929190611544565b60405180910390f35b61012660048036038101906101219190611291565b610dab565b60405161013391906115fd565b60405180910390f35b610144610dcf565b60405161015191906115fd565b60405180910390f35b610174600480360381019061016f9190611178565b610dd5565b005b61017e610ff7565b60405161018b9190611507565b60405180910390f35b6060600060025467ffffffffffffffff8111156101da577f4e487b7100000000000000000000000000000000000000000000000000000000600052604160045260246000fd5b60405190808252806020026020018201604052801561021357816020015b61020061101b565b8152602001906001900390816101f85790505b50905060005b600254811015610652576001600060038381548110610261577f4e487b7100000000000000000000000000000000000000000000000000000000600052603260045260246000fd5b906000526020600020015481526020019081526020016000206040518060e0016040529081600082018054610295906117f6565b80601f01602080910402602001604051908101604052809291908181526020018280546102c1906117f6565b801561030e5780601f106102e35761010080835404028352916020019161030e565b820191906000526020600020905b8154815290600101906020018083116102f157829003601f168201915b50505050508152602001600182018054610327906117f6565b80601f0160208091040260200160405190810160405280929190818152602001828054610353906117f6565b80156103a05780601f10610375576101008083540402835291602001916103a0565b820191906000526020600020905b81548152906001019060200180831161038357829003601f168201915b505050505081526020016002820180546103b9906117f6565b80601f01602080910402602001604051908101604052809291908181526020018280546103e5906117f6565b80156104325780601f1061040757610100808354040283529160200191610432565b820191906000526020600020905b81548152906001019060200180831161041557829003601f168201915b5050505050815260200160038201805461044b906117f6565b80601f0160208091040260200160405190810160405280929190818152602001828054610477906117f6565b80156104c45780601f10610499576101008083540402835291602001916104c4565b820191906000526020600020905b8154815290600101906020018083116104a757829003601f168201915b505050505081526020016004820180546104dd906117f6565b80601f0160208091040260200160405190810160405280929190818152602001828054610509906117f6565b80156105565780601f1061052b57610100808354040283529160200191610556565b820191906000526020600020905b81548152906001019060200180831161053957829003601f168201915b5050505050815260200160058201805461056f906117f6565b80601f016020809104026020016040519081016040528092919081815260200182805461059b906117f6565b80156105e85780601f106105bd576101008083540402835291602001916105e8565b820191906000526020600020905b8154815290600101906020018083116105cb57829003601f168201915b50505050508152602001600682015481525050828281518110610634577f4e487b7100000000000000000000000000000000000000000000000000000000600052603260045260246000fd5b6020026020010181905250808061064a90611828565b915050610219565b508091505090565b600160205280600052604060002060009150905080600001805461067d906117f6565b80601f01602080910402602001604051908101604052809291908181526020018280546106a9906117f6565b80156106f65780601f106106cb576101008083540402835291602001916106f6565b820191906000526020600020905b8154815290600101906020018083116106d957829003601f168201915b50505050509080600101805461070b906117f6565b80601f0160208091040260200160405190810160405280929190818152602001828054610737906117f6565b80156107845780601f1061075957610100808354040283529160200191610784565b820191906000526020600020905b81548152906001019060200180831161076757829003601f168201915b505050505090806002018054610799906117f6565b80601f01602080910402602001604051908101604052809291908181526020018280546107c5906117f6565b80156108125780601f106107e757610100808354040283529160200191610812565b820191906000526020600020905b8154815290600101906020018083116107f557829003601f168201915b505050505090806003018054610827906117f6565b80601f0160208091040260200160405190810160405280929190818152602001828054610853906117f6565b80156108a05780601f10610875576101008083540402835291602001916108a0565b820191906000526020600020905b81548152906001019060200180831161088357829003601f168201915b5050505050908060040180546108b5906117f6565b80601f01602080910402602001604051908101604052809291908181526020018280546108e1906117f6565b801561092e5780601f106109035761010080835404028352916020019161092e565b820191906000526020600020905b81548152906001019060200180831161091157829003601f168201915b505050505090806005018054610943906117f6565b80601f016020809104026020016040519081016040528092919081815260200182805461096f906117f6565b80156109bc5780601f10610991576101008083540402835291602001916109bc565b820191906000526020600020905b81548152906001019060200180831161099f57829003601f168201915b5050505050908060060154905087565b606080606080606080600080600160008a81526020019081526020016000206040518060e0016040529081600082018054610a06906117f6565b80601f0160208091040260200160405190810160405280929190818152602001828054610a32906117f6565b8015610a7f5780601f10610a5457610100808354040283529160200191610a7f565b820191906000526020600020905b815481529060010190602001808311610a6257829003601f168201915b50505050508152602001600182018054610a98906117f6565b80601f0160208091040260200160405190810160405280929190818152602001828054610ac4906117f6565b8015610b115780601f10610ae657610100808354040283529160200191610b11565b820191906000526020600020905b815481529060010190602001808311610af457829003601f168201915b50505050508152602001600282018054610b2a906117f6565b80601f0160208091040260200160405190810160405280929190818152602001828054610b56906117f6565b8015610ba35780601f10610b7857610100808354040283529160200191610ba3565b820191906000526020600020905b815481529060010190602001808311610b8657829003601f168201915b50505050508152602001600382018054610bbc906117f6565b80601f0160208091040260200160405190810160405280929190818152602001828054610be8906117f6565b8015610c355780601f10610c0a57610100808354040283529160200191610c35565b820191906000526020600020905b815481529060010190602001808311610c1857829003601f168201915b50505050508152602001600482018054610c4e906117f6565b80601f0160208091040260200160405190810160405280929190818152602001828054610c7a906117f6565b8015610cc75780601f10610c9c57610100808354040283529160200191610cc7565b820191906000526020600020905b815481529060010190602001808311610caa57829003601f168201915b50505050508152602001600582018054610ce0906117f6565b80601f0160208091040260200160405190810160405280929190818152602001828054610d0c906117f6565b8015610d595780601f10610d2e57610100808354040283529160200191610d59565b820191906000526020600020905b815481529060010190602001808311610d3c57829003601f168201915b505050505081526020016006820154815250509050806000015181602001518260400151836060015184608001518560a001518660c00151975097509750975097509750975050919395979092949650565b60038181548110610dbb57600080fd5b906000526020600020016000915090505481565b60025481565b60008054906101000a900473ffffffffffffffffffffffffffffffffffffffff1673ffffffffffffffffffffffffffffffffffffffff163373ffffffffffffffffffffffffffffffffffffffff1614610e63576040517f08c379a0000000000000000000000000000000000000000000000000000000008152600401610e5a906115dd565b60405180910390fd5b60026000815480929190610e7690611828565b91905055506040518060e0016040528087815260200186815260200185815260200184815260200183815260200182815260200160008152506001600060025481526020019081526020016000206000820151816000019080519060200190610ee0929190611058565b506020820151816001019080519060200190610efd929190611058565b506040820151816002019080519060200190610f1a929190611058565b506060820151816003019080519060200190610f37929190611058565b506080820151816004019080519060200190610f54929190611058565b5060a0820151816005019080519060200190610f71929190611058565b5060c08201518160060155905050600360025490806001815401808255809150506001900390600052602060002001600090919091909150557f9690875d9417d220650d86e7fdc479bd564065047f7f72345a827d6d98ae486b600254878787878787604051610fe79796959493929190611618565b60405180910390a1505050505050565b60008054906101000a900473ffffffffffffffffffffffffffffffffffffffff1681565b6040518060e00160405280606081526020016060815260200160608152602001606081526020016060815260200160608152602001600081525090565b828054611064906117f6565b90600052602060002090601f01602090048101928261108657600085556110cd565b82601f1061109f57805160ff19168380011785556110cd565b828001600101855582156110cd579182015b828111156110cc5782518255916020019190600101906110b1565b5b5090506110da91906110de565b5090565b5b808211156110f75760008160009055506001016110df565b5090565b600061110e611109846116e2565b6116b1565b90508281526020810184848401111561112657600080fd5b6111318482856117b4565b509392505050565b600082601f83011261114a57600080fd5b813561115a8482602086016110fb565b91505092915050565b6000813590506111728161190f565b92915050565b60008060008060008060c0878903121561119157600080fd5b600087013567ffffffffffffffff8111156111ab57600080fd5b6111b789828a01611139565b965050602087013567ffffffffffffffff8111156111d457600080fd5b6111e089828a01611139565b955050604087013567ffffffffffffffff8111156111fd57600080fd5b61120989828a01611139565b945050606087013567ffffffffffffffff81111561122657600080fd5b61123289828a01611139565b935050608087013567ffffffffffffffff81111561124f57600080fd5b61125b89828a01611139565b92505060a087013567ffffffffffffffff81111561127857600080fd5b61128489828a01611139565b9150509295509295509295565b6000602082840312156112a357600080fd5b60006112b184828501611163565b91505092915050565b60006112c6838361142a565b905092915050565b6112d781611778565b82525050565b60006112e882611722565b6112f28185611745565b93508360208202850161130485611712565b8060005b85811015611340578484038952815161132185826112ba565b945061132c83611738565b925060208a01995050600181019050611308565b50829750879550505050505092915050565b600061135d8261172d565b6113678185611756565b93506113778185602086016117c3565b611380816118fe565b840191505092915050565b60006113968261172d565b6113a08185611767565b93506113b08185602086016117c3565b6113b9816118fe565b840191505092915050565b60006113d1602283611767565b91507f4f6e6c792061646d696e2063616e20706572666f726d2074686973206163746960008301527f6f6e0000000000000000000000000000000000000000000000000000000000006020830152604082019050919050565b600060e08301600083015184820360008601526114478282611352565b915050602083015184820360208601526114618282611352565b9150506040830151848203604086015261147b8282611352565b915050606083015184820360608601526114958282611352565b915050608083015184820360808601526114af8282611352565b91505060a083015184820360a08601526114c98282611352565b91505060c08301516114de60c08601826114e9565b508091505092915050565b6114f2816117aa565b82525050565b611501816117aa565b82525050565b600060208201905061151c60008301846112ce565b92915050565b6000602082019050818103600083015261153c81846112dd565b905092915050565b600060e082019050818103600083015261155e818a61138b565b90508181036020830152611572818961138b565b90508181036040830152611586818861138b565b9050818103606083015261159a818761138b565b905081810360808301526115ae818661138b565b905081810360a08301526115c2818561138b565b90506115d160c08301846114f8565b98975050505050505050565b600060208201905081810360008301526115f6816113c4565b9050919050565b600060208201905061161260008301846114f8565b92915050565b600060e08201905061162d600083018a6114f8565b818103602083015261163f818961138b565b90508181036040830152611653818861138b565b90508181036060830152611667818761138b565b9050818103608083015261167b818661138b565b905081810360a083015261168f818561138b565b905081810360c08301526116a3818461138b565b905098975050505050505050565b6000604051905081810181811067ffffffffffffffff821117156116d8576116d76118cf565b5b8060405250919050565b600067ffffffffffffffff8211156116fd576116fc6118cf565b5b601f19601f8301169050602081019050919050565b6000819050602082019050919050565b600081519050919050565b600081519050919050565b6000602082019050919050565b600082825260208201905092915050565b600082825260208201905092915050565b600082825260208201905092915050565b60006117838261178a565b9050919050565b600073ffffffffffffffffffffffffffffffffffffffff82169050919050565b6000819050919050565b82818337600083830152505050565b60005b838110156117e15780820151818401526020810190506117c6565b838111156117f0576000848401525b50505050565b6000600282049050600182168061180e57607f821691505b60208210811415611822576118216118a0565b5b50919050565b6000611833826117aa565b91507fffffffffffffffffffffffffffffffffffffffffffffffffffffffffffffffff82141561186657611865611871565b5b600182019050919050565b7f4e487b7100000000000000000000000000000000000000000000000000000000600052601160045260246000fd5b7f4e487b7100000000000000000000000000000000000000000000000000000000600052602260045260246000fd5b7f4e487b7100000000000000000000000000000000000000000000000000000000600052604160045260246000fd5b6000601f19601f8301169050919050565b611918816117aa565b811461192357600080fd5b5056fea26469706673582212208ff4fdac7ee8264f7f434a28a8edf6a2f16b1c719e72f94cf8fafc675861949864736f6c63430008000033",
  "immutableReferences": {},
  "source": "// SPDX-License-Identifier: MIT\r\npragma solidity ^0.8.0;\r\n\r\ncontract AdminPanel {\r\n    // Struct to hold candidate details\r\n    struct Candidate {\r\n        string firstName;\r\n        string lastName;\r\n        string position;\r\n        string addressInfo; \r\n        string profileImageHash; \r\n        string logoImageHash;    \r\n        uint256 voteCount;\r\n    }\r\n\r\n    // Address of the election authority (admin) state variable\r\n    address public electionAuthority;\r\n\r\n    // Mapping to store candidates with an incremental ID\r\n    mapping(uint256 => Candidate) public candidates;\r\n    uint256 public candidateCount = 0;\r\n\r\n    // Array to keep track of candidate IDs\r\n    uint256[] public candidateIDs;\r\n\r\n    // Modifier to restrict certain functions to only the admin (electionAuthority)\r\n    modifier onlyAdmin() {\r\n        require(\r\n            msg.sender == electionAuthority,\r\n            \"Only admin can perform this action\"\r\n        );\r\n        _;\r\n    }\r\n\r\n    // Constructor to initialize the contract with the admin's address\r\n    constructor() {\r\n        electionAuthority = msg.sender; \r\n    }\r\n\r\n    // Event to log candidate addition\r\n    event CandidateAdded(\r\n        uint256 candidateID,\r\n        string firstName,\r\n        string lastName,\r\n        string position,\r\n        string addressInfo,\r\n        string profileImageHash,\r\n        string logoImageHash\r\n    );\r\n\r\n    // Function to add a candidate (Only admin can add)\r\n    function addCandidate(\r\n        string memory firstName,\r\n        string memory lastName,\r\n        string memory position,\r\n        string memory addressInfo,\r\n        string memory profileImageHash, \r\n        string memory logoImageHash      \r\n    ) public onlyAdmin {\r\n        candidateCount++;\r\n        candidates[candidateCount] = Candidate({\r\n            firstName: firstName,\r\n            lastName: lastName,\r\n            position: position,\r\n            addressInfo: addressInfo,\r\n            profileImageHash: profileImageHash, \r\n            logoImageHash: logoImageHash,       \r\n            voteCount: 0 \r\n        });\r\n\r\n        // Add the new candidate ID to the array\r\n        candidateIDs.push(candidateCount);\r\n\r\n        // Emit event when a candidate is added\r\n        emit CandidateAdded(\r\n            candidateCount,\r\n            firstName,\r\n            lastName,\r\n            position,\r\n            addressInfo,\r\n            profileImageHash, \r\n            logoImageHash    \r\n        );\r\n    }\r\n\r\n    // Function to get candidate details by ID\r\n    function getCandidate(\r\n        uint256 candidateID\r\n    )\r\n        public\r\n        view\r\n        returns (\r\n            string memory firstName,\r\n            string memory lastName,\r\n            string memory position,\r\n            string memory addressInfo,\r\n            string memory profileImageHash, \r\n            string memory logoImageHash,     \r\n            uint256 voteCount\r\n        )\r\n    {\r\n        Candidate memory candidate = candidates[candidateID];\r\n        return (\r\n            candidate.firstName,\r\n            candidate.lastName,\r\n            candidate.position,\r\n            candidate.addressInfo,\r\n            candidate.profileImageHash, \r\n            candidate.logoImageHash,     \r\n            candidate.voteCount\r\n        );\r\n    }\r\n\r\n    // Function to get all candidates' details\r\n    function getAllCandidates() public view returns (Candidate[] memory) {\r\n        Candidate[] memory allCandidates = new Candidate[](candidateCount);\r\n        for (uint256 i = 0; i < candidateCount; i++) {\r\n            allCandidates[i] = candidates[candidateIDs[i]];\r\n        }\r\n        return allCandidates;\r\n    }\r\n}\r\n",
  "sourcePath": "C:\\Users\\Dell\\Desktop\\QuickVote\\ethereum\\contracts\\adminPanel.sol",
  "compiler": {
    "name": "solc",
    "version": "0.8.0+commit.c7dfd78e.Emscripten.clang"
  },
  "schemaVersion": "3.4.16",
  "updatedAt": "2024-10-22T09:23:35.602Z",
  "networkType": "ethereum",
  "devdoc": {
    "kind": "dev",
    "methods": {},
    "version": 1
  },
  "userdoc": {
    "kind": "user",
    "methods": {},
    "version": 1
  }
}