{
  "contractName": "AdminPanel",
  "abi": [
    {
      "inputs": [],
      "stateMutability": "nonpayable",
      "type": "constructor"
    },
    {
      "anonymous": false,
      "inputs": [
        {
          "indexed": false,
          "internalType": "uint256",
          "name": "candidateID",
          "type": "uint256"
        },
        {
          "indexed": false,
          "internalType": "string",
          "name": "firstName",
          "type": "string"
        },
        {
          "indexed": false,
          "internalType": "string",
          "name": "lastName",
          "type": "string"
        },
        {
          "indexed": false,
          "internalType": "string",
          "name": "position",
          "type": "string"
        },
        {
          "indexed": false,
          "internalType": "string",
          "name": "addressInfo",
          "type": "string"
        },
        {
          "indexed": false,
          "internalType": "string",
          "name": "profileImageHash",
          "type": "string"
        },
        {
          "indexed": false,
          "internalType": "string",
          "name": "logoImageHash",
          "type": "string"
        }
      ],
      "name": "CandidateAdded",
      "type": "event"
    },
    {
      "anonymous": false,
      "inputs": [],
      "name": "CandidatesReset",
      "type": "event"
    },
    {
      "inputs": [],
      "name": "candidateCount",
      "outputs": [
        {
          "internalType": "uint256",
          "name": "",
          "type": "uint256"
        }
      ],
      "stateMutability": "view",
      "type": "function",
      "constant": true
    },
    {
      "inputs": [
        {
          "internalType": "uint256",
          "name": "",
          "type": "uint256"
        }
      ],
      "name": "candidateIDs",
      "outputs": [
        {
          "internalType": "uint256",
          "name": "",
          "type": "uint256"
        }
      ],
      "stateMutability": "view",
      "type": "function",
      "constant": true
    },
    {
      "inputs": [
        {
          "internalType": "uint256",
          "name": "",
          "type": "uint256"
        }
      ],
      "name": "candidates",
      "outputs": [
        {
          "internalType": "string",
          "name": "firstName",
          "type": "string"
        },
        {
          "internalType": "string",
          "name": "lastName",
          "type": "string"
        },
        {
          "internalType": "string",
          "name": "position",
          "type": "string"
        },
        {
          "internalType": "string",
          "name": "addressInfo",
          "type": "string"
        },
        {
          "internalType": "string",
          "name": "profileImageHash",
          "type": "string"
        },
        {
          "internalType": "string",
          "name": "logoImageHash",
          "type": "string"
        },
        {
          "internalType": "uint256",
          "name": "voteCount",
          "type": "uint256"
        }
      ],
      "stateMutability": "view",
      "type": "function",
      "constant": true
    },
    {
      "inputs": [],
      "name": "electionAuthority",
      "outputs": [
        {
          "internalType": "address",
          "name": "",
          "type": "address"
        }
      ],
      "stateMutability": "view",
      "type": "function",
      "constant": true
    },
    {
      "inputs": [
        {
          "internalType": "string",
          "name": "firstName",
          "type": "string"
        },
        {
          "internalType": "string",
          "name": "lastName",
          "type": "string"
        },
        {
          "internalType": "string",
          "name": "position",
          "type": "string"
        },
        {
          "internalType": "string",
          "name": "addressInfo",
          "type": "string"
        },
        {
          "internalType": "string",
          "name": "profileImageHash",
          "type": "string"
        },
        {
          "internalType": "string",
          "name": "logoImageHash",
          "type": "string"
        }
      ],
      "name": "addCandidate",
      "outputs": [],
      "stateMutability": "nonpayable",
      "type": "function"
    },
    {
      "inputs": [
        {
          "internalType": "uint256",
          "name": "candidateID",
          "type": "uint256"
        }
      ],
      "name": "incrementVoteCount",
      "outputs": [],
      "stateMutability": "nonpayable",
      "type": "function"
    },
    {
      "inputs": [],
      "name": "resetCandidates",
      "outputs": [],
      "stateMutability": "nonpayable",
      "type": "function"
    },
    {
      "inputs": [
        {
          "internalType": "uint256",
          "name": "candidateID",
          "type": "uint256"
        }
      ],
      "name": "getCandidate",
      "outputs": [
        {
          "internalType": "string",
          "name": "firstName",
          "type": "string"
        },
        {
          "internalType": "string",
          "name": "lastName",
          "type": "string"
        },
        {
          "internalType": "string",
          "name": "position",
          "type": "string"
        },
        {
          "internalType": "string",
          "name": "addressInfo",
          "type": "string"
        },
        {
          "internalType": "string",
          "name": "profileImageHash",
          "type": "string"
        },
        {
          "internalType": "string",
          "name": "logoImageHash",
          "type": "string"
        },
        {
          "internalType": "uint256",
          "name": "voteCount",
          "type": "uint256"
        }
      ],
      "stateMutability": "view",
      "type": "function",
      "constant": true
    },
    {
      "inputs": [],
      "name": "getAllCandidates",
      "outputs": [
        {
          "components": [
            {
              "internalType": "string",
              "name": "firstName",
              "type": "string"
            },
            {
              "internalType": "string",
              "name": "lastName",
              "type": "string"
            },
            {
              "internalType": "string",
              "name": "position",
              "type": "string"
            },
            {
              "internalType": "string",
              "name": "addressInfo",
              "type": "string"
            },
            {
              "internalType": "string",
              "name": "profileImageHash",
              "type": "string"
            },
            {
              "internalType": "string",
              "name": "logoImageHash",
              "type": "string"
            },
            {
              "internalType": "uint256",
              "name": "voteCount",
              "type": "uint256"
            }
          ],
          "internalType": "struct AdminPanel.Candidate[]",
          "name": "",
          "type": "tuple[]"
        }
      ],
      "stateMutability": "view",
      "type": "function",
      "constant": true
    },
    {
      "inputs": [],
      "name": "getWinners",
      "outputs": [
        {
          "components": [
            {
              "internalType": "string",
              "name": "firstName",
              "type": "string"
            },
            {
              "internalType": "string",
              "name": "lastName",
              "type": "string"
            },
            {
              "internalType": "string",
              "name": "position",
              "type": "string"
            },
            {
              "internalType": "string",
              "name": "addressInfo",
              "type": "string"
            },
            {
              "internalType": "string",
              "name": "profileImageHash",
              "type": "string"
            },
            {
              "internalType": "string",
              "name": "logoImageHash",
              "type": "string"
            },
            {
              "internalType": "uint256",
              "name": "voteCount",
              "type": "uint256"
            }
          ],
          "internalType": "struct AdminPanel.Candidate[]",
          "name": "",
          "type": "tuple[]"
        }
      ],
      "stateMutability": "view",
      "type": "function",
      "constant": true
    }
  ],
  "bytecode": "0x6080604052600060025534801561001557600080fd5b50336000806101000a81548173ffffffffffffffffffffffffffffffffffffffff021916908373ffffffffffffffffffffffffffffffffffffffff1602179055506122d5806100656000396000f3fe608060405234801561001057600080fd5b506004361061009e5760003560e01c8063a9a981a311610066578063a9a981a314610167578063bbdac32314610185578063dc46d6ea146101a1578063df15c37e146101bf578063f3b9e61c146101dd5761009e565b80632e6997fe146100a35780633477ee2e146100c157806335b8e820146100f757806370a56eed1461012d5780637718d9f31461015d575b600080fd5b6100ab6101f9565b6040516100b89190611e05565b60405180910390f35b6100db60048036038101906100d69190611af4565b6106bf565b6040516100ee9796959493929190611e27565b60405180910390f35b610111600480360381019061010c9190611af4565b610a31565b6040516101249796959493929190611e27565b60405180910390f35b61014760048036038101906101429190611af4565b610e10565b6040516101549190611f20565b60405180910390f35b610165610e34565b005b61016f610fa8565b60405161017c9190611f20565b60405180910390f35b61019f600480360381019061019a91906119db565b610fae565b005b6101a96111d0565b6040516101b69190611dea565b60405180910390f35b6101c76111f4565b6040516101d49190611e05565b60405180910390f35b6101f760048036038101906101f29190611af4565b61179c565b005b6060600060025467ffffffffffffffff81111561023f577f4e487b7100000000000000000000000000000000000000000000000000000000600052604160045260246000fd5b60405190808252806020026020018201604052801561027857816020015b61026561181d565b81526020019060019003908161025d5790505b50905060005b6002548110156106b75760016000600383815481106102c6577f4e487b7100000000000000000000000000000000000000000000000000000000600052603260045260246000fd5b906000526020600020015481526020019081526020016000206040518060e00160405290816000820180546102fa9061216f565b80601f01602080910402602001604051908101604052809291908181526020018280546103269061216f565b80156103735780601f1061034857610100808354040283529160200191610373565b820191906000526020600020905b81548152906001019060200180831161035657829003601f168201915b5050505050815260200160018201805461038c9061216f565b80601f01602080910402602001604051908101604052809291908181526020018280546103b89061216f565b80156104055780601f106103da57610100808354040283529160200191610405565b820191906000526020600020905b8154815290600101906020018083116103e857829003601f168201915b5050505050815260200160028201805461041e9061216f565b80601f016020809104026020016040519081016040528092919081815260200182805461044a9061216f565b80156104975780601f1061046c57610100808354040283529160200191610497565b820191906000526020600020905b81548152906001019060200180831161047a57829003601f168201915b505050505081526020016003820180546104b09061216f565b80601f01602080910402602001604051908101604052809291908181526020018280546104dc9061216f565b80156105295780601f106104fe57610100808354040283529160200191610529565b820191906000526020600020905b81548152906001019060200180831161050c57829003601f168201915b505050505081526020016004820180546105429061216f565b80601f016020809104026020016040519081016040528092919081815260200182805461056e9061216f565b80156105bb5780601f10610590576101008083540402835291602001916105bb565b820191906000526020600020905b81548152906001019060200180831161059e57829003601f168201915b505050505081526020016005820180546105d49061216f565b80601f01602080910402602001604051908101604052809291908181526020018280546106009061216f565b801561064d5780601f106106225761010080835404028352916020019161064d565b820191906000526020600020905b81548152906001019060200180831161063057829003601f168201915b50505050508152602001600682015481525050828281518110610699577f4e487b7100000000000000000000000000000000000000000000000000000000600052603260045260246000fd5b602002602001018190525080806106af906121a1565b91505061027e565b508091505090565b60016020528060005260406000206000915090508060000180546106e29061216f565b80601f016020809104026020016040519081016040528092919081815260200182805461070e9061216f565b801561075b5780601f106107305761010080835404028352916020019161075b565b820191906000526020600020905b81548152906001019060200180831161073e57829003601f168201915b5050505050908060010180546107709061216f565b80601f016020809104026020016040519081016040528092919081815260200182805461079c9061216f565b80156107e95780601f106107be576101008083540402835291602001916107e9565b820191906000526020600020905b8154815290600101906020018083116107cc57829003601f168201915b5050505050908060020180546107fe9061216f565b80601f016020809104026020016040519081016040528092919081815260200182805461082a9061216f565b80156108775780601f1061084c57610100808354040283529160200191610877565b820191906000526020600020905b81548152906001019060200180831161085a57829003601f168201915b50505050509080600301805461088c9061216f565b80601f01602080910402602001604051908101604052809291908181526020018280546108b89061216f565b80156109055780601f106108da57610100808354040283529160200191610905565b820191906000526020600020905b8154815290600101906020018083116108e857829003601f168201915b50505050509080600401805461091a9061216f565b80601f01602080910402602001604051908101604052809291908181526020018280546109469061216f565b80156109935780601f1061096857610100808354040283529160200191610993565b820191906000526020600020905b81548152906001019060200180831161097657829003601f168201915b5050505050908060050180546109a89061216f565b80601f01602080910402602001604051908101604052809291908181526020018280546109d49061216f565b8015610a215780601f106109f657610100808354040283529160200191610a21565b820191906000526020600020905b815481529060010190602001808311610a0457829003601f168201915b5050505050908060060154905087565b606080606080606080600080600160008a81526020019081526020016000206040518060e0016040529081600082018054610a6b9061216f565b80601f0160208091040260200160405190810160405280929190818152602001828054610a979061216f565b8015610ae45780601f10610ab957610100808354040283529160200191610ae4565b820191906000526020600020905b815481529060010190602001808311610ac757829003601f168201915b50505050508152602001600182018054610afd9061216f565b80601f0160208091040260200160405190810160405280929190818152602001828054610b299061216f565b8015610b765780601f10610b4b57610100808354040283529160200191610b76565b820191906000526020600020905b815481529060010190602001808311610b5957829003601f168201915b50505050508152602001600282018054610b8f9061216f565b80601f0160208091040260200160405190810160405280929190818152602001828054610bbb9061216f565b8015610c085780601f10610bdd57610100808354040283529160200191610c08565b820191906000526020600020905b815481529060010190602001808311610beb57829003601f168201915b50505050508152602001600382018054610c219061216f565b80601f0160208091040260200160405190810160405280929190818152602001828054610c4d9061216f565b8015610c9a5780601f10610c6f57610100808354040283529160200191610c9a565b820191906000526020600020905b815481529060010190602001808311610c7d57829003601f168201915b50505050508152602001600482018054610cb39061216f565b80601f0160208091040260200160405190810160405280929190818152602001828054610cdf9061216f565b8015610d2c5780601f10610d0157610100808354040283529160200191610d2c565b820191906000526020600020905b815481529060010190602001808311610d0f57829003601f168201915b50505050508152602001600582018054610d459061216f565b80601f0160208091040260200160405190810160405280929190818152602001828054610d719061216f565b8015610dbe5780601f10610d9357610100808354040283529160200191610dbe565b820191906000526020600020905b815481529060010190602001808311610da157829003601f168201915b505050505081526020016006820154815250509050806000015181602001518260400151836060015184608001518560a001518660c00151975097509750975097509750975050919395979092949650565b60038181548110610e2057600080fd5b906000526020600020016000915090505481565b60008054906101000a900473ffffffffffffffffffffffffffffffffffffffff1673ffffffffffffffffffffffffffffffffffffffff163373ffffffffffffffffffffffffffffffffffffffff1614610ec2576040517f08c379a0000000000000000000000000000000000000000000000000000000008152600401610eb990611ec0565b60405180910390fd5b6000600190505b6002548111610f63576001600082815260200190815260200160002060008082016000610ef6919061185a565b600182016000610f06919061185a565b600282016000610f16919061185a565b600382016000610f26919061185a565b600482016000610f36919061185a565b600582016000610f46919061185a565b600682016000905550508080610f5b906121a1565b915050610ec9565b50600060028190555060036000610f7a919061189a565b7f800bdaa40887ccfd790fdc79f47cf3acbb2a1ecf28b3bccb67e3719009c1bab260405160405180910390a1565b60025481565b60008054906101000a900473ffffffffffffffffffffffffffffffffffffffff1673ffffffffffffffffffffffffffffffffffffffff163373ffffffffffffffffffffffffffffffffffffffff161461103c576040517f08c379a000000000000000000000000000000000000000000000000000000000815260040161103390611ec0565b60405180910390fd5b6002600081548092919061104f906121a1565b91905055506040518060e00160405280878152602001868152602001858152602001848152602001838152602001828152602001600081525060016000600254815260200190815260200160002060008201518160000190805190602001906110b99291906118bb565b5060208201518160010190805190602001906110d69291906118bb565b5060408201518160020190805190602001906110f39291906118bb565b5060608201518160030190805190602001906111109291906118bb565b50608082015181600401908051906020019061112d9291906118bb565b5060a082015181600501908051906020019061114a9291906118bb565b5060c08201518160060155905050600360025490806001815401808255809150506001900390600052602060002001600090919091909150557f9690875d9417d220650d86e7fdc479bd564065047f7f72345a827d6d98ae486b6002548787878787876040516111c09796959493929190611f3b565b60405180910390a1505050505050565b60008054906101000a900473ffffffffffffffffffffffffffffffffffffffff1681565b606060006002541161123b576040517f08c379a000000000000000000000000000000000000000000000000000000000815260040161123290611f00565b60405180910390fd5b600080600190505b600254811161129757816001600083815260200190815260200160002060060154111561128457600160008281526020019081526020016000206006015491505b808061128f906121a1565b915050611243565b50600080600190505b60025481116112e95782600160008381526020019081526020016000206006015414156112d65781806112d2906121a1565b9250505b80806112e1906121a1565b9150506112a0565b5060008167ffffffffffffffff81111561132c577f4e487b7100000000000000000000000000000000000000000000000000000000600052604160045260246000fd5b60405190808252806020026020018201604052801561136557816020015b61135261181d565b81526020019060019003908161134a5790505b509050600080600190505b600254811161179157846001600083815260200190815260200160002060060154141561177e57600160008281526020019081526020016000206040518060e00160405290816000820180546113c59061216f565b80601f01602080910402602001604051908101604052809291908181526020018280546113f19061216f565b801561143e5780601f106114135761010080835404028352916020019161143e565b820191906000526020600020905b81548152906001019060200180831161142157829003601f168201915b505050505081526020016001820180546114579061216f565b80601f01602080910402602001604051908101604052809291908181526020018280546114839061216f565b80156114d05780601f106114a5576101008083540402835291602001916114d0565b820191906000526020600020905b8154815290600101906020018083116114b357829003601f168201915b505050505081526020016002820180546114e99061216f565b80601f01602080910402602001604051908101604052809291908181526020018280546115159061216f565b80156115625780601f1061153757610100808354040283529160200191611562565b820191906000526020600020905b81548152906001019060200180831161154557829003601f168201915b5050505050815260200160038201805461157b9061216f565b80601f01602080910402602001604051908101604052809291908181526020018280546115a79061216f565b80156115f45780601f106115c9576101008083540402835291602001916115f4565b820191906000526020600020905b8154815290600101906020018083116115d757829003601f168201915b5050505050815260200160048201805461160d9061216f565b80601f01602080910402602001604051908101604052809291908181526020018280546116399061216f565b80156116865780601f1061165b57610100808354040283529160200191611686565b820191906000526020600020905b81548152906001019060200180831161166957829003601f168201915b5050505050815260200160058201805461169f9061216f565b80601f01602080910402602001604051908101604052809291908181526020018280546116cb9061216f565b80156117185780601f106116ed57610100808354040283529160200191611718565b820191906000526020600020905b8154815290600101906020018083116116fb57829003601f168201915b50505050508152602001600682015481525050838381518110611764577f4e487b7100000000000000000000000000000000000000000000000000000000600052603260045260246000fd5b6020026020010181905250818061177a906121a1565b9250505b8080611789906121a1565b915050611370565b508194505050505090565b6000811180156117ae57506002548111155b6117ed576040517f08c379a00000000000000000000000000000000000000000000000000000000081526004016117e490611ee0565b60405180910390fd5b60018060008381526020019081526020016000206006016000828254611813919061209b565b9250508190555050565b6040518060e00160405280606081526020016060815260200160608152602001606081526020016060815260200160608152602001600081525090565b5080546118669061216f565b6000825580601f106118785750611897565b601f0160209004906000526020600020908101906118969190611941565b5b50565b50805460008255906000526020600020908101906118b89190611941565b50565b8280546118c79061216f565b90600052602060002090601f0160209004810192826118e95760008555611930565b82601f1061190257805160ff1916838001178555611930565b82800160010185558215611930579182015b8281111561192f578251825591602001919060010190611914565b5b50905061193d9190611941565b5090565b5b8082111561195a576000816000905550600101611942565b5090565b600061197161196c84612005565b611fd4565b90508281526020810184848401111561198957600080fd5b61199484828561212d565b509392505050565b600082601f8301126119ad57600080fd5b81356119bd84826020860161195e565b91505092915050565b6000813590506119d581612288565b92915050565b60008060008060008060c087890312156119f457600080fd5b600087013567ffffffffffffffff811115611a0e57600080fd5b611a1a89828a0161199c565b965050602087013567ffffffffffffffff811115611a3757600080fd5b611a4389828a0161199c565b955050604087013567ffffffffffffffff811115611a6057600080fd5b611a6c89828a0161199c565b945050606087013567ffffffffffffffff811115611a8957600080fd5b611a9589828a0161199c565b935050608087013567ffffffffffffffff811115611ab257600080fd5b611abe89828a0161199c565b92505060a087013567ffffffffffffffff811115611adb57600080fd5b611ae789828a0161199c565b9150509295509295509295565b600060208284031215611b0657600080fd5b6000611b14848285016119c6565b91505092915050565b6000611b298383611d0d565b905092915050565b611b3a816120f1565b82525050565b6000611b4b82612045565b611b558185612068565b935083602082028501611b6785612035565b8060005b85811015611ba35784840389528151611b848582611b1d565b9450611b8f8361205b565b925060208a01995050600181019050611b6b565b50829750879550505050505092915050565b6000611bc082612050565b611bca8185612079565b9350611bda81856020860161213c565b611be381612277565b840191505092915050565b6000611bf982612050565b611c03818561208a565b9350611c1381856020860161213c565b611c1c81612277565b840191505092915050565b6000611c3460228361208a565b91507f4f6e6c792061646d696e2063616e20706572666f726d2074686973206163746960008301527f6f6e0000000000000000000000000000000000000000000000000000000000006020830152604082019050919050565b6000611c9a60148361208a565b91507f496e76616c69642063616e6469646174652049440000000000000000000000006000830152602082019050919050565b6000611cda60188361208a565b91507f4e6f2063616e6469646174657320617661696c61626c652e00000000000000006000830152602082019050919050565b600060e0830160008301518482036000860152611d2a8282611bb5565b91505060208301518482036020860152611d448282611bb5565b91505060408301518482036040860152611d5e8282611bb5565b91505060608301518482036060860152611d788282611bb5565b91505060808301518482036080860152611d928282611bb5565b91505060a083015184820360a0860152611dac8282611bb5565b91505060c0830151611dc160c0860182611dcc565b508091505092915050565b611dd581612123565b82525050565b611de481612123565b82525050565b6000602082019050611dff6000830184611b31565b92915050565b60006020820190508181036000830152611e1f8184611b40565b905092915050565b600060e0820190508181036000830152611e41818a611bee565b90508181036020830152611e558189611bee565b90508181036040830152611e698188611bee565b90508181036060830152611e7d8187611bee565b90508181036080830152611e918186611bee565b905081810360a0830152611ea58185611bee565b9050611eb460c0830184611ddb565b98975050505050505050565b60006020820190508181036000830152611ed981611c27565b9050919050565b60006020820190508181036000830152611ef981611c8d565b9050919050565b60006020820190508181036000830152611f1981611ccd565b9050919050565b6000602082019050611f356000830184611ddb565b92915050565b600060e082019050611f50600083018a611ddb565b8181036020830152611f628189611bee565b90508181036040830152611f768188611bee565b90508181036060830152611f8a8187611bee565b90508181036080830152611f9e8186611bee565b905081810360a0830152611fb28185611bee565b905081810360c0830152611fc68184611bee565b905098975050505050505050565b6000604051905081810181811067ffffffffffffffff82111715611ffb57611ffa612248565b5b8060405250919050565b600067ffffffffffffffff8211156120205761201f612248565b5b601f19601f8301169050602081019050919050565b6000819050602082019050919050565b600081519050919050565b600081519050919050565b6000602082019050919050565b600082825260208201905092915050565b600082825260208201905092915050565b600082825260208201905092915050565b60006120a682612123565b91506120b183612123565b9250827fffffffffffffffffffffffffffffffffffffffffffffffffffffffffffffffff038211156120e6576120e56121ea565b5b828201905092915050565b60006120fc82612103565b9050919050565b600073ffffffffffffffffffffffffffffffffffffffff82169050919050565b6000819050919050565b82818337600083830152505050565b60005b8381101561215a57808201518184015260208101905061213f565b83811115612169576000848401525b50505050565b6000600282049050600182168061218757607f821691505b6020821081141561219b5761219a612219565b5b50919050565b60006121ac82612123565b91507fffffffffffffffffffffffffffffffffffffffffffffffffffffffffffffffff8214156121df576121de6121ea565b5b600182019050919050565b7f4e487b7100000000000000000000000000000000000000000000000000000000600052601160045260246000fd5b7f4e487b7100000000000000000000000000000000000000000000000000000000600052602260045260246000fd5b7f4e487b7100000000000000000000000000000000000000000000000000000000600052604160045260246000fd5b6000601f19601f8301169050919050565b61229181612123565b811461229c57600080fd5b5056fea2646970667358221220411e20f19006000c737e7a9c34e91e6cc9ca42153d69132988f8c49e185d57aa64736f6c63430008000033",
  "immutableReferences": {},
  "source": "// SPDX-License-Identifier: MIT\r\npragma solidity ^0.8.0;\r\n\r\ncontract AdminPanel {\r\n    // Struct to hold candidate details\r\n    struct Candidate {\r\n        string firstName;\r\n        string lastName;\r\n        string position;\r\n        string addressInfo;\r\n        string profileImageHash;\r\n        string logoImageHash;\r\n        uint256 voteCount;\r\n    }\r\n\r\n    // Address of the election authority (admin) state variable\r\n    address public electionAuthority;\r\n\r\n    // Mapping to store candidates with an incremental ID\r\n    mapping(uint256 => Candidate) public candidates;\r\n    uint256 public candidateCount = 0;\r\n\r\n    // Array to keep track of candidate IDs\r\n    uint256[] public candidateIDs;\r\n\r\n    // Modifier to restrict certain functions to only the admin (electionAuthority)\r\n    modifier onlyAdmin() {\r\n        require(\r\n            msg.sender == electionAuthority,\r\n            \"Only admin can perform this action\"\r\n        );\r\n        _;\r\n    }\r\n\r\n    // Constructor to initialize the contract with the admin's address\r\n    constructor() {\r\n        electionAuthority = msg.sender;\r\n    }\r\n\r\n    // Event to log candidate addition\r\n    event CandidateAdded(\r\n        uint256 candidateID,\r\n        string firstName,\r\n        string lastName,\r\n        string position,\r\n        string addressInfo,\r\n        string profileImageHash,\r\n        string logoImageHash\r\n    );\r\n\r\n    // Event to log reset action\r\n    event CandidatesReset();\r\n\r\n    // Function to add a candidate (Only admin can add)\r\n    function addCandidate(\r\n        string memory firstName,\r\n        string memory lastName,\r\n        string memory position,\r\n        string memory addressInfo,\r\n        string memory profileImageHash,\r\n        string memory logoImageHash\r\n    ) public onlyAdmin {\r\n        candidateCount++;\r\n        candidates[candidateCount] = Candidate({\r\n            firstName: firstName,\r\n            lastName: lastName,\r\n            position: position,\r\n            addressInfo: addressInfo,\r\n            profileImageHash: profileImageHash,\r\n            logoImageHash: logoImageHash,\r\n            voteCount: 0\r\n        });\r\n\r\n        // Add the new candidate ID to the array\r\n        candidateIDs.push(candidateCount);\r\n\r\n        // Emit event when a candidate is added\r\n        emit CandidateAdded(\r\n            candidateCount,\r\n            firstName,\r\n            lastName,\r\n            position,\r\n            addressInfo,\r\n            profileImageHash,\r\n            logoImageHash\r\n        );\r\n    }\r\n\r\n    // Function to increment the vote count for a candidate\r\n    function incrementVoteCount(uint256 candidateID) external {\r\n        require(candidateID > 0 && candidateID <= candidateCount, \"Invalid candidate ID\");\r\n        candidates[candidateID].voteCount += 1; // Increment the vote count\r\n    }\r\n\r\n    // Function to reset all candidates\r\n    function resetCandidates() public onlyAdmin {\r\n        // Reset all candidate data\r\n        for (uint256 i = 1; i <= candidateCount; i++) {\r\n            delete candidates[i];\r\n        }\r\n\r\n        // Reset candidate count and clear candidate IDs\r\n        candidateCount = 0;\r\n        delete candidateIDs;\r\n\r\n        // Emit event for reset action\r\n        emit CandidatesReset();\r\n    }\r\n\r\n    // Function to get candidate details by ID\r\n    function getCandidate(\r\n        uint256 candidateID\r\n    )\r\n        public\r\n        view\r\n        returns (\r\n            string memory firstName,\r\n            string memory lastName,\r\n            string memory position,\r\n            string memory addressInfo,\r\n            string memory profileImageHash,\r\n            string memory logoImageHash,\r\n            uint256 voteCount\r\n        )\r\n    {\r\n        Candidate memory candidate = candidates[candidateID];\r\n        return (\r\n            candidate.firstName,\r\n            candidate.lastName,\r\n            candidate.position,\r\n            candidate.addressInfo,\r\n            candidate.profileImageHash,\r\n            candidate.logoImageHash,\r\n            candidate.voteCount\r\n        );\r\n    }\r\n\r\n    // Function to get all candidates' details\r\n    function getAllCandidates() public view returns (Candidate[] memory) {\r\n        Candidate[] memory allCandidates = new Candidate[](candidateCount);\r\n        for (uint256 i = 0; i < candidateCount; i++) {\r\n            allCandidates[i] = candidates[candidateIDs[i]];\r\n        }\r\n        return allCandidates;\r\n    }\r\n\r\n    // Function to get all winners in case of a tie\r\n    function getWinners() public view returns (Candidate[] memory) {\r\n        require(candidateCount > 0, \"No candidates available.\");\r\n\r\n        uint256 maxVotes = 0;\r\n\r\n        // Find the highest vote count\r\n        for (uint256 i = 1; i <= candidateCount; i++) {\r\n            if (candidates[i].voteCount > maxVotes) {\r\n                maxVotes = candidates[i].voteCount;\r\n            }\r\n        }\r\n\r\n        // Count candidates with the highest vote count\r\n        uint256 tieCount = 0;\r\n        for (uint256 i = 1; i <= candidateCount; i++) {\r\n            if (candidates[i].voteCount == maxVotes) {\r\n                tieCount++;\r\n            }\r\n        }\r\n\r\n        // Create an array to store tied candidates\r\n        Candidate[] memory winners = new Candidate[](tieCount);\r\n        uint256 index = 0;\r\n        for (uint256 i = 1; i <= candidateCount; i++) {\r\n            if (candidates[i].voteCount == maxVotes) {\r\n                winners[index] = candidates[i];\r\n                index++;\r\n            }\r\n        }\r\n\r\n        return winners;\r\n    }\r\n}\r\n",
  "sourcePath": "D:\\CtoD\\QuickVote\\ethereum\\contracts\\AdminPanel.sol",
  "compiler": {
    "name": "solc",
    "version": "0.8.0+commit.c7dfd78e.Emscripten.clang"
  },
  "schemaVersion": "3.4.16",
  "updatedAt": "2025-07-29T18:05:25.283Z",
  "networkType": "ethereum",
  "devdoc": {
    "kind": "dev",
    "methods": {},
    "version": 1
  },
  "userdoc": {
    "kind": "user",
    "methods": {},
    "version": 1
  }
}