{
  "contractName": "AdminPanel",
  "abi": [
    {
      "inputs": [],
      "stateMutability": "nonpayable",
      "type": "constructor"
    },
    {
      "anonymous": false,
      "inputs": [
        {
          "indexed": false,
          "internalType": "uint256",
          "name": "candidateID",
          "type": "uint256"
        },
        {
          "indexed": false,
          "internalType": "string",
          "name": "firstName",
          "type": "string"
        },
        {
          "indexed": false,
          "internalType": "string",
          "name": "lastName",
          "type": "string"
        },
        {
          "indexed": false,
          "internalType": "string",
          "name": "position",
          "type": "string"
        },
        {
          "indexed": false,
          "internalType": "string",
          "name": "addressInfo",
          "type": "string"
        },
        {
          "indexed": false,
          "internalType": "string",
          "name": "profileImageHash",
          "type": "string"
        },
        {
          "indexed": false,
          "internalType": "string",
          "name": "logoImageHash",
          "type": "string"
        }
      ],
      "name": "CandidateAdded",
      "type": "event"
    },
    {
      "inputs": [],
      "name": "candidateCount",
      "outputs": [
        {
          "internalType": "uint256",
          "name": "",
          "type": "uint256"
        }
      ],
      "stateMutability": "view",
      "type": "function",
      "constant": true
    },
    {
      "inputs": [
        {
          "internalType": "uint256",
          "name": "",
          "type": "uint256"
        }
      ],
      "name": "candidates",
      "outputs": [
        {
          "internalType": "string",
          "name": "firstName",
          "type": "string"
        },
        {
          "internalType": "string",
          "name": "lastName",
          "type": "string"
        },
        {
          "internalType": "string",
          "name": "position",
          "type": "string"
        },
        {
          "internalType": "string",
          "name": "addressInfo",
          "type": "string"
        },
        {
          "internalType": "string",
          "name": "profileImageHash",
          "type": "string"
        },
        {
          "internalType": "string",
          "name": "logoImageHash",
          "type": "string"
        },
        {
          "internalType": "uint256",
          "name": "voteCount",
          "type": "uint256"
        }
      ],
      "stateMutability": "view",
      "type": "function",
      "constant": true
    },
    {
      "inputs": [],
      "name": "electionAuthority",
      "outputs": [
        {
          "internalType": "address",
          "name": "",
          "type": "address"
        }
      ],
      "stateMutability": "view",
      "type": "function",
      "constant": true
    },
    {
      "inputs": [
        {
          "internalType": "string",
          "name": "firstName",
          "type": "string"
        },
        {
          "internalType": "string",
          "name": "lastName",
          "type": "string"
        },
        {
          "internalType": "string",
          "name": "position",
          "type": "string"
        },
        {
          "internalType": "string",
          "name": "addressInfo",
          "type": "string"
        },
        {
          "internalType": "string",
          "name": "profileImageHash",
          "type": "string"
        },
        {
          "internalType": "string",
          "name": "logoImageHash",
          "type": "string"
        }
      ],
      "name": "addCandidate",
      "outputs": [],
      "stateMutability": "nonpayable",
      "type": "function"
    },
    {
      "inputs": [
        {
          "internalType": "uint256",
          "name": "candidateID",
          "type": "uint256"
        }
      ],
      "name": "getCandidate",
      "outputs": [
        {
          "internalType": "string",
          "name": "firstName",
          "type": "string"
        },
        {
          "internalType": "string",
          "name": "lastName",
          "type": "string"
        },
        {
          "internalType": "string",
          "name": "position",
          "type": "string"
        },
        {
          "internalType": "string",
          "name": "addressInfo",
          "type": "string"
        },
        {
          "internalType": "string",
          "name": "profileImageHash",
          "type": "string"
        },
        {
          "internalType": "string",
          "name": "logoImageHash",
          "type": "string"
        },
        {
          "internalType": "uint256",
          "name": "voteCount",
          "type": "uint256"
        }
      ],
      "stateMutability": "view",
      "type": "function",
      "constant": true
    }
  ],
  "bytecode": "0x6080604052600060025534801561001557600080fd5b50336000806101000a81548173ffffffffffffffffffffffffffffffffffffffff021916908373ffffffffffffffffffffffffffffffffffffffff16021790555061119a806100656000396000f3fe608060405234801561001057600080fd5b50600436106100575760003560e01c80633477ee2e1461005c57806335b8e82014610092578063a9a981a3146100c8578063bbdac323146100e6578063dc46d6ea14610102575b600080fd5b61007660048036038101906100719190610ccb565b610120565b6040516100899796959493929190610dcc565b60405180910390f35b6100ac60048036038101906100a79190610ccb565b610492565b6040516100bf9796959493929190610dcc565b60405180910390f35b6100d0610871565b6040516100dd9190610e85565b60405180910390f35b61010060048036038101906100fb9190610bb2565b610877565b005b61010a610a6e565b6040516101179190610db1565b60405180910390f35b600160205280600052604060002060009150905080600001805461014390611034565b80601f016020809104026020016040519081016040528092919081815260200182805461016f90611034565b80156101bc5780601f10610191576101008083540402835291602001916101bc565b820191906000526020600020905b81548152906001019060200180831161019f57829003601f168201915b5050505050908060010180546101d190611034565b80601f01602080910402602001604051908101604052809291908181526020018280546101fd90611034565b801561024a5780601f1061021f5761010080835404028352916020019161024a565b820191906000526020600020905b81548152906001019060200180831161022d57829003601f168201915b50505050509080600201805461025f90611034565b80601f016020809104026020016040519081016040528092919081815260200182805461028b90611034565b80156102d85780601f106102ad576101008083540402835291602001916102d8565b820191906000526020600020905b8154815290600101906020018083116102bb57829003601f168201915b5050505050908060030180546102ed90611034565b80601f016020809104026020016040519081016040528092919081815260200182805461031990611034565b80156103665780601f1061033b57610100808354040283529160200191610366565b820191906000526020600020905b81548152906001019060200180831161034957829003601f168201915b50505050509080600401805461037b90611034565b80601f01602080910402602001604051908101604052809291908181526020018280546103a790611034565b80156103f45780601f106103c9576101008083540402835291602001916103f4565b820191906000526020600020905b8154815290600101906020018083116103d757829003601f168201915b50505050509080600501805461040990611034565b80601f016020809104026020016040519081016040528092919081815260200182805461043590611034565b80156104825780601f1061045757610100808354040283529160200191610482565b820191906000526020600020905b81548152906001019060200180831161046557829003601f168201915b5050505050908060060154905087565b606080606080606080600080600160008a81526020019081526020016000206040518060e00160405290816000820180546104cc90611034565b80601f01602080910402602001604051908101604052809291908181526020018280546104f890611034565b80156105455780601f1061051a57610100808354040283529160200191610545565b820191906000526020600020905b81548152906001019060200180831161052857829003601f168201915b5050505050815260200160018201805461055e90611034565b80601f016020809104026020016040519081016040528092919081815260200182805461058a90611034565b80156105d75780601f106105ac576101008083540402835291602001916105d7565b820191906000526020600020905b8154815290600101906020018083116105ba57829003601f168201915b505050505081526020016002820180546105f090611034565b80601f016020809104026020016040519081016040528092919081815260200182805461061c90611034565b80156106695780601f1061063e57610100808354040283529160200191610669565b820191906000526020600020905b81548152906001019060200180831161064c57829003601f168201915b5050505050815260200160038201805461068290611034565b80601f01602080910402602001604051908101604052809291908181526020018280546106ae90611034565b80156106fb5780601f106106d0576101008083540402835291602001916106fb565b820191906000526020600020905b8154815290600101906020018083116106de57829003601f168201915b5050505050815260200160048201805461071490611034565b80601f016020809104026020016040519081016040528092919081815260200182805461074090611034565b801561078d5780601f106107625761010080835404028352916020019161078d565b820191906000526020600020905b81548152906001019060200180831161077057829003601f168201915b505050505081526020016005820180546107a690611034565b80601f01602080910402602001604051908101604052809291908181526020018280546107d290611034565b801561081f5780601f106107f45761010080835404028352916020019161081f565b820191906000526020600020905b81548152906001019060200180831161080257829003601f168201915b505050505081526020016006820154815250509050806000015181602001518260400151836060015184608001518560a001518660c00151975097509750975097509750975050919395979092949650565b60025481565b60008054906101000a900473ffffffffffffffffffffffffffffffffffffffff1673ffffffffffffffffffffffffffffffffffffffff163373ffffffffffffffffffffffffffffffffffffffff1614610905576040517f08c379a00000000000000000000000000000000000000000000000000000000081526004016108fc90610e65565b60405180910390fd5b6002600081548092919061091890611066565b91905055506040518060e0016040528087815260200186815260200185815260200184815260200183815260200182815260200160008152506001600060025481526020019081526020016000206000820151816000019080519060200190610982929190610a92565b50602082015181600101908051906020019061099f929190610a92565b5060408201518160020190805190602001906109bc929190610a92565b5060608201518160030190805190602001906109d9929190610a92565b5060808201518160040190805190602001906109f6929190610a92565b5060a0820151816005019080519060200190610a13929190610a92565b5060c082015181600601559050507f9690875d9417d220650d86e7fdc479bd564065047f7f72345a827d6d98ae486b600254878787878787604051610a5e9796959493929190610ea0565b60405180910390a1505050505050565b60008054906101000a900473ffffffffffffffffffffffffffffffffffffffff1681565b828054610a9e90611034565b90600052602060002090601f016020900481019282610ac05760008555610b07565b82601f10610ad957805160ff1916838001178555610b07565b82800160010185558215610b07579182015b82811115610b06578251825591602001919060010190610aeb565b5b509050610b149190610b18565b5090565b5b80821115610b31576000816000905550600101610b19565b5090565b6000610b48610b4384610f6a565b610f39565b905082815260208101848484011115610b6057600080fd5b610b6b848285610ff2565b509392505050565b600082601f830112610b8457600080fd5b8135610b94848260208601610b35565b91505092915050565b600081359050610bac8161114d565b92915050565b60008060008060008060c08789031215610bcb57600080fd5b600087013567ffffffffffffffff811115610be557600080fd5b610bf189828a01610b73565b965050602087013567ffffffffffffffff811115610c0e57600080fd5b610c1a89828a01610b73565b955050604087013567ffffffffffffffff811115610c3757600080fd5b610c4389828a01610b73565b945050606087013567ffffffffffffffff811115610c6057600080fd5b610c6c89828a01610b73565b935050608087013567ffffffffffffffff811115610c8957600080fd5b610c9589828a01610b73565b92505060a087013567ffffffffffffffff811115610cb257600080fd5b610cbe89828a01610b73565b9150509295509295509295565b600060208284031215610cdd57600080fd5b6000610ceb84828501610b9d565b91505092915050565b610cfd81610fb6565b82525050565b6000610d0e82610f9a565b610d188185610fa5565b9350610d28818560208601611001565b610d318161113c565b840191505092915050565b6000610d49602283610fa5565b91507f4f6e6c792061646d696e2063616e20706572666f726d2074686973206163746960008301527f6f6e0000000000000000000000000000000000000000000000000000000000006020830152604082019050919050565b610dab81610fe8565b82525050565b6000602082019050610dc66000830184610cf4565b92915050565b600060e0820190508181036000830152610de6818a610d03565b90508181036020830152610dfa8189610d03565b90508181036040830152610e0e8188610d03565b90508181036060830152610e228187610d03565b90508181036080830152610e368186610d03565b905081810360a0830152610e4a8185610d03565b9050610e5960c0830184610da2565b98975050505050505050565b60006020820190508181036000830152610e7e81610d3c565b9050919050565b6000602082019050610e9a6000830184610da2565b92915050565b600060e082019050610eb5600083018a610da2565b8181036020830152610ec78189610d03565b90508181036040830152610edb8188610d03565b90508181036060830152610eef8187610d03565b90508181036080830152610f038186610d03565b905081810360a0830152610f178185610d03565b905081810360c0830152610f2b8184610d03565b905098975050505050505050565b6000604051905081810181811067ffffffffffffffff82111715610f6057610f5f61110d565b5b8060405250919050565b600067ffffffffffffffff821115610f8557610f8461110d565b5b601f19601f8301169050602081019050919050565b600081519050919050565b600082825260208201905092915050565b6000610fc182610fc8565b9050919050565b600073ffffffffffffffffffffffffffffffffffffffff82169050919050565b6000819050919050565b82818337600083830152505050565b60005b8381101561101f578082015181840152602081019050611004565b8381111561102e576000848401525b50505050565b6000600282049050600182168061104c57607f821691505b602082108114156110605761105f6110de565b5b50919050565b600061107182610fe8565b91507fffffffffffffffffffffffffffffffffffffffffffffffffffffffffffffffff8214156110a4576110a36110af565b5b600182019050919050565b7f4e487b7100000000000000000000000000000000000000000000000000000000600052601160045260246000fd5b7f4e487b7100000000000000000000000000000000000000000000000000000000600052602260045260246000fd5b7f4e487b7100000000000000000000000000000000000000000000000000000000600052604160045260246000fd5b6000601f19601f8301169050919050565b61115681610fe8565b811461116157600080fd5b5056fea2646970667358221220d6f71948f2c7e7be69da9f85b2d3b7d468f6a81ca83209cc5e3a61c7b280826b64736f6c63430008000033",
  "immutableReferences": {},
  "source": "// SPDX-License-Identifier: MIT\r\npragma solidity ^0.8.0;\r\n\r\ncontract AdminPanel {\r\n    // Struct to hold candidate details\r\n    struct Candidate {\r\n        string firstName;\r\n        string lastName;\r\n        string position;\r\n        string addressInfo; // Address as string\r\n        string profileImageHash; // IPFS hash for profile image\r\n        string logoImageHash;    // IPFS hash for logo\r\n        uint256 voteCount;\r\n    }\r\n\r\n    // Address of the election authority (admin) state variable\r\n    address public electionAuthority;\r\n\r\n    // Mapping to store candidates with an incremental ID\r\n    mapping(uint256 => Candidate) public candidates;\r\n    uint256 public candidateCount = 0;\r\n\r\n    // Modifier to restrict certain functions to only the admin (electionAuthority)\r\n    modifier onlyAdmin() {\r\n        require(\r\n            msg.sender == electionAuthority,\r\n            \"Only admin can perform this action\"\r\n        );\r\n        _;\r\n    }\r\n\r\n    // Constructor to initialize the contract with the admin's address\r\n    constructor() {\r\n        electionAuthority = msg.sender; // Deployer of the contract is the electionAuthority\r\n    }\r\n\r\n    // Event to log candidate addition\r\n    event CandidateAdded(\r\n        uint256 candidateID,\r\n        string firstName,\r\n        string lastName,\r\n        string position,\r\n        string addressInfo,\r\n        string profileImageHash,\r\n        string logoImageHash\r\n    );\r\n\r\n    // Function to add a candidate (Only admin can add)\r\n    function addCandidate(\r\n        string memory firstName,\r\n        string memory lastName,\r\n        string memory position,\r\n        string memory addressInfo,\r\n        string memory profileImageHash, // New parameter for profile image\r\n        string memory logoImageHash      // New parameter for logo image\r\n    ) public onlyAdmin {\r\n        candidateCount++; // Increment candidate ID\r\n        candidates[candidateCount] = Candidate({\r\n            firstName: firstName,\r\n            lastName: lastName,\r\n            position: position,\r\n            addressInfo: addressInfo,\r\n            profileImageHash: profileImageHash, // Store profile image hash\r\n            logoImageHash: logoImageHash,       // Store logo image hash\r\n            voteCount: 0 // Initialize vote count to zero\r\n        });\r\n\r\n        // Emit event when a candidate is added\r\n        emit CandidateAdded(\r\n            candidateCount,\r\n            firstName,\r\n            lastName,\r\n            position,\r\n            addressInfo,\r\n            profileImageHash, // Include profile image hash in event\r\n            logoImageHash     // Include logo image hash in event\r\n        );\r\n    }\r\n\r\n    // Function to get candidate details by ID\r\n    function getCandidate(\r\n        uint256 candidateID\r\n    )\r\n        public\r\n        view\r\n        returns (\r\n            string memory firstName,\r\n            string memory lastName,\r\n            string memory position,\r\n            string memory addressInfo,\r\n            string memory profileImageHash, // New return value for profile image hash\r\n            string memory logoImageHash,     // New return value for logo image hash\r\n            uint256 voteCount\r\n        )\r\n    {\r\n        Candidate memory candidate = candidates[candidateID];\r\n        return (\r\n            candidate.firstName,\r\n            candidate.lastName,\r\n            candidate.position,\r\n            candidate.addressInfo,\r\n            candidate.profileImageHash, // Return profile image hash\r\n            candidate.logoImageHash,     // Return logo image hash\r\n            candidate.voteCount\r\n        );\r\n    }\r\n}\r\n",
  "sourcePath": "C:\\Users\\Dell\\Desktop\\QuickVote\\ethereum\\contracts\\adminPanel.sol",
  "compiler": {
    "name": "solc",
    "version": "0.8.0+commit.c7dfd78e.Emscripten.clang"
  },
  "schemaVersion": "3.4.16",
  "updatedAt": "2024-10-05T08:55:32.490Z",
  "networkType": "ethereum",
  "devdoc": {
    "kind": "dev",
    "methods": {},
    "version": 1
  },
  "userdoc": {
    "kind": "user",
    "methods": {},
    "version": 1
  }
}