{
  "contractName": "adminPanel",
  "abi": [
    {
      "inputs": [],
      "stateMutability": "nonpayable",
      "type": "constructor"
    },
    {
      "anonymous": false,
      "inputs": [
        {
          "indexed": false,
          "internalType": "uint256",
          "name": "candidateID",
          "type": "uint256"
        },
        {
          "indexed": false,
          "internalType": "string",
          "name": "firstName",
          "type": "string"
        },
        {
          "indexed": false,
          "internalType": "string",
          "name": "lastName",
          "type": "string"
        },
        {
          "indexed": false,
          "internalType": "string",
          "name": "position",
          "type": "string"
        },
        {
          "indexed": false,
          "internalType": "string",
          "name": "addressInfo",
          "type": "string"
        }
      ],
      "name": "CandidateAdded",
      "type": "event"
    },
    {
      "inputs": [],
      "name": "candidateCount",
      "outputs": [
        {
          "internalType": "uint256",
          "name": "",
          "type": "uint256"
        }
      ],
      "stateMutability": "view",
      "type": "function",
      "constant": true
    },
    {
      "inputs": [
        {
          "internalType": "uint256",
          "name": "",
          "type": "uint256"
        }
      ],
      "name": "candidates",
      "outputs": [
        {
          "internalType": "string",
          "name": "firstName",
          "type": "string"
        },
        {
          "internalType": "string",
          "name": "lastName",
          "type": "string"
        },
        {
          "internalType": "string",
          "name": "position",
          "type": "string"
        },
        {
          "internalType": "string",
          "name": "addressInfo",
          "type": "string"
        },
        {
          "internalType": "uint256",
          "name": "voteCount",
          "type": "uint256"
        }
      ],
      "stateMutability": "view",
      "type": "function",
      "constant": true
    },
    {
      "inputs": [],
      "name": "electionAuthority",
      "outputs": [
        {
          "internalType": "address",
          "name": "",
          "type": "address"
        }
      ],
      "stateMutability": "view",
      "type": "function",
      "constant": true
    },
    {
      "inputs": [
        {
          "internalType": "string",
          "name": "firstName",
          "type": "string"
        },
        {
          "internalType": "string",
          "name": "lastName",
          "type": "string"
        },
        {
          "internalType": "string",
          "name": "position",
          "type": "string"
        },
        {
          "internalType": "string",
          "name": "addressInfo",
          "type": "string"
        }
      ],
      "name": "addCandidate",
      "outputs": [],
      "stateMutability": "nonpayable",
      "type": "function"
    },
    {
      "inputs": [
        {
          "internalType": "uint256",
          "name": "candidateID",
          "type": "uint256"
        }
      ],
      "name": "getCandidate",
      "outputs": [
        {
          "internalType": "string",
          "name": "firstName",
          "type": "string"
        },
        {
          "internalType": "string",
          "name": "lastName",
          "type": "string"
        },
        {
          "internalType": "string",
          "name": "position",
          "type": "string"
        },
        {
          "internalType": "string",
          "name": "addressInfo",
          "type": "string"
        },
        {
          "internalType": "uint256",
          "name": "voteCount",
          "type": "uint256"
        }
      ],
      "stateMutability": "view",
      "type": "function",
      "constant": true
    }
  ],
  "bytecode": "0x6080604052600060025534801561001557600080fd5b50336000806101000a81548173ffffffffffffffffffffffffffffffffffffffff021916908373ffffffffffffffffffffffffffffffffffffffff160217905550610e4d806100656000396000f3fe608060405234801561001057600080fd5b50600436106100575760003560e01c80633477ee2e1461005c57806335b8e8201461009057806342b03cc9146100c4578063a9a981a3146100e0578063dc46d6ea146100fe575b600080fd5b610076600480360381019061007191906109d2565b61011c565b604051610087959493929190610ad3565b60405180910390f35b6100aa60048036038101906100a591906109d2565b610372565b6040516100bb959493929190610ad3565b60405180910390f35b6100de60048036038101906100d9919061090f565b61061a565b005b6100e86107c5565b6040516100f59190610b62565b60405180910390f35b6101066107cb565b6040516101139190610ab8565b60405180910390f35b600160205280600052604060002060009150905080600001805461013f90610ce7565b80601f016020809104026020016040519081016040528092919081815260200182805461016b90610ce7565b80156101b85780601f1061018d576101008083540402835291602001916101b8565b820191906000526020600020905b81548152906001019060200180831161019b57829003601f168201915b5050505050908060010180546101cd90610ce7565b80601f01602080910402602001604051908101604052809291908181526020018280546101f990610ce7565b80156102465780601f1061021b57610100808354040283529160200191610246565b820191906000526020600020905b81548152906001019060200180831161022957829003601f168201915b50505050509080600201805461025b90610ce7565b80601f016020809104026020016040519081016040528092919081815260200182805461028790610ce7565b80156102d45780601f106102a9576101008083540402835291602001916102d4565b820191906000526020600020905b8154815290600101906020018083116102b757829003601f168201915b5050505050908060030180546102e990610ce7565b80601f016020809104026020016040519081016040528092919081815260200182805461031590610ce7565b80156103625780601f1061033757610100808354040283529160200191610362565b820191906000526020600020905b81548152906001019060200180831161034557829003601f168201915b5050505050908060040154905085565b606080606080600080600160008881526020019081526020016000206040518060a00160405290816000820180546103a990610ce7565b80601f01602080910402602001604051908101604052809291908181526020018280546103d590610ce7565b80156104225780601f106103f757610100808354040283529160200191610422565b820191906000526020600020905b81548152906001019060200180831161040557829003601f168201915b5050505050815260200160018201805461043b90610ce7565b80601f016020809104026020016040519081016040528092919081815260200182805461046790610ce7565b80156104b45780601f10610489576101008083540402835291602001916104b4565b820191906000526020600020905b81548152906001019060200180831161049757829003601f168201915b505050505081526020016002820180546104cd90610ce7565b80601f01602080910402602001604051908101604052809291908181526020018280546104f990610ce7565b80156105465780601f1061051b57610100808354040283529160200191610546565b820191906000526020600020905b81548152906001019060200180831161052957829003601f168201915b5050505050815260200160038201805461055f90610ce7565b80601f016020809104026020016040519081016040528092919081815260200182805461058b90610ce7565b80156105d85780601f106105ad576101008083540402835291602001916105d8565b820191906000526020600020905b8154815290600101906020018083116105bb57829003601f168201915b50505050508152602001600482015481525050905080600001518160200151826040015183606001518460800151955095509550955095505091939590929450565b60008054906101000a900473ffffffffffffffffffffffffffffffffffffffff1673ffffffffffffffffffffffffffffffffffffffff163373ffffffffffffffffffffffffffffffffffffffff16146106a8576040517f08c379a000000000000000000000000000000000000000000000000000000000815260040161069f90610b42565b60405180910390fd5b600260008154809291906106bb90610d19565b91905055506040518060a00160405280858152602001848152602001838152602001828152602001600081525060016000600254815260200190815260200160002060008201518160000190805190602001906107199291906107ef565b5060208201518160010190805190602001906107369291906107ef565b5060408201518160020190805190602001906107539291906107ef565b5060608201518160030190805190602001906107709291906107ef565b50608082015181600401559050507f1908f3f8bf9e04cbee388cdea6025f92e954127dec768c7e092afb158071f0d0600254858585856040516107b7959493929190610b7d565b60405180910390a150505050565b60025481565b60008054906101000a900473ffffffffffffffffffffffffffffffffffffffff1681565b8280546107fb90610ce7565b90600052602060002090601f01602090048101928261081d5760008555610864565b82601f1061083657805160ff1916838001178555610864565b82800160010185558215610864579182015b82811115610863578251825591602001919060010190610848565b5b5090506108719190610875565b5090565b5b8082111561088e576000816000905550600101610876565b5090565b60006108a56108a084610c1d565b610bec565b9050828152602081018484840111156108bd57600080fd5b6108c8848285610ca5565b509392505050565b600082601f8301126108e157600080fd5b81356108f1848260208601610892565b91505092915050565b60008135905061090981610e00565b92915050565b6000806000806080858703121561092557600080fd5b600085013567ffffffffffffffff81111561093f57600080fd5b61094b878288016108d0565b945050602085013567ffffffffffffffff81111561096857600080fd5b610974878288016108d0565b935050604085013567ffffffffffffffff81111561099157600080fd5b61099d878288016108d0565b925050606085013567ffffffffffffffff8111156109ba57600080fd5b6109c6878288016108d0565b91505092959194509250565b6000602082840312156109e457600080fd5b60006109f2848285016108fa565b91505092915050565b610a0481610c69565b82525050565b6000610a1582610c4d565b610a1f8185610c58565b9350610a2f818560208601610cb4565b610a3881610def565b840191505092915050565b6000610a50602283610c58565b91507f4f6e6c792061646d696e2063616e20706572666f726d2074686973206163746960008301527f6f6e0000000000000000000000000000000000000000000000000000000000006020830152604082019050919050565b610ab281610c9b565b82525050565b6000602082019050610acd60008301846109fb565b92915050565b600060a0820190508181036000830152610aed8188610a0a565b90508181036020830152610b018187610a0a565b90508181036040830152610b158186610a0a565b90508181036060830152610b298185610a0a565b9050610b386080830184610aa9565b9695505050505050565b60006020820190508181036000830152610b5b81610a43565b9050919050565b6000602082019050610b776000830184610aa9565b92915050565b600060a082019050610b926000830188610aa9565b8181036020830152610ba48187610a0a565b90508181036040830152610bb88186610a0a565b90508181036060830152610bcc8185610a0a565b90508181036080830152610be08184610a0a565b90509695505050505050565b6000604051905081810181811067ffffffffffffffff82111715610c1357610c12610dc0565b5b8060405250919050565b600067ffffffffffffffff821115610c3857610c37610dc0565b5b601f19601f8301169050602081019050919050565b600081519050919050565b600082825260208201905092915050565b6000610c7482610c7b565b9050919050565b600073ffffffffffffffffffffffffffffffffffffffff82169050919050565b6000819050919050565b82818337600083830152505050565b60005b83811015610cd2578082015181840152602081019050610cb7565b83811115610ce1576000848401525b50505050565b60006002820490506001821680610cff57607f821691505b60208210811415610d1357610d12610d91565b5b50919050565b6000610d2482610c9b565b91507fffffffffffffffffffffffffffffffffffffffffffffffffffffffffffffffff821415610d5757610d56610d62565b5b600182019050919050565b7f4e487b7100000000000000000000000000000000000000000000000000000000600052601160045260246000fd5b7f4e487b7100000000000000000000000000000000000000000000000000000000600052602260045260246000fd5b7f4e487b7100000000000000000000000000000000000000000000000000000000600052604160045260246000fd5b6000601f19601f8301169050919050565b610e0981610c9b565b8114610e1457600080fd5b5056fea264697066735822122046d1e07f065c63293c11201eb5a9782d6d407036b91625eababf42b6f8b0407564736f6c63430008000033",
  "immutableReferences": {},
  "source": "// SPDX-License-Identifier: MIT\r\npragma solidity ^0.8.0;\r\n\r\ncontract adminPanel {\r\n    // Struct to hold candidate details\r\n    struct Candidate {\r\n        string firstName;\r\n        string lastName;\r\n        string position;\r\n        string addressInfo; // Address as string\r\n        uint256 voteCount;\r\n    }\r\n\r\n    // Address of the election authority (admin) state variable\r\n    address public electionAuthority;\r\n\r\n    // Mapping to store candidates with an incremental ID\r\n    mapping(uint256 => Candidate) public candidates;\r\n    uint256 public candidateCount = 0;\r\n\r\n    // Modifier to restrict certain functions to only the admin (electionAuthority)\r\n    modifier onlyAdmin() {\r\n        require(\r\n            msg.sender == electionAuthority,\r\n            \"Only admin can perform this action\"\r\n        );\r\n        _;\r\n    }\r\n\r\n    // Constructor to initialize the contract with the admin's address\r\n    constructor() {\r\n        electionAuthority = msg.sender; // Deployer of the contract is the electionAuthority\r\n    }\r\n\r\n    // Event to log candidate addition\r\n    event CandidateAdded(\r\n        uint256 candidateID,\r\n        string firstName,\r\n        string lastName,\r\n        string position,\r\n        string addressInfo\r\n    );\r\n\r\n    // Function to add a candidate (Only admin can add)\r\n    function addCandidate(\r\n        string memory firstName,\r\n        string memory lastName,\r\n        string memory position,\r\n        string memory addressInfo\r\n    ) public onlyAdmin {\r\n        candidateCount++; // Increment candidate ID\r\n        candidates[candidateCount] = Candidate({\r\n            firstName: firstName,\r\n            lastName: lastName,\r\n            position: position,\r\n            addressInfo: addressInfo,\r\n            voteCount: 0 // Initialize vote count to zero\r\n        });\r\n\r\n        // Emit event when a candidate is added\r\n        emit CandidateAdded(\r\n            candidateCount,\r\n            firstName,\r\n            lastName,\r\n            position,\r\n            addressInfo\r\n        );\r\n    }\r\n\r\n    // Function to get candidate details by ID\r\n    function getCandidate(\r\n        uint256 candidateID\r\n    )\r\n        public\r\n        view\r\n        returns (\r\n            string memory firstName,\r\n            string memory lastName,\r\n            string memory position,\r\n            string memory addressInfo,\r\n            uint256 voteCount\r\n        )\r\n    {\r\n        Candidate memory candidate = candidates[candidateID];\r\n        return (\r\n            candidate.firstName,\r\n            candidate.lastName,\r\n            candidate.position,\r\n            candidate.addressInfo,\r\n            candidate.voteCount\r\n        );\r\n    }\r\n}\r\n",
  "sourcePath": "C:\\Users\\Dell\\Desktop\\QuickVote\\ethereum\\contracts\\adminPanel.sol",
  "compiler": {
    "name": "solc",
    "version": "0.8.0+commit.c7dfd78e.Emscripten.clang"
  },
  "schemaVersion": "3.4.16",
  "updatedAt": "2024-10-01T11:35:10.064Z",
  "networkType": "ethereum",
  "devdoc": {
    "kind": "dev",
    "methods": {},
    "version": 1
  },
  "userdoc": {
    "kind": "user",
    "methods": {},
    "version": 1
  }
}