{
  "contractName": "AdminPanel",
  "abi": [
    {
      "inputs": [],
      "stateMutability": "nonpayable",
      "type": "constructor"
    },
    {
      "anonymous": false,
      "inputs": [
        {
          "indexed": false,
          "internalType": "uint256",
          "name": "candidateID",
          "type": "uint256"
        },
        {
          "indexed": false,
          "internalType": "string",
          "name": "firstName",
          "type": "string"
        },
        {
          "indexed": false,
          "internalType": "string",
          "name": "lastName",
          "type": "string"
        },
        {
          "indexed": false,
          "internalType": "string",
          "name": "position",
          "type": "string"
        },
        {
          "indexed": false,
          "internalType": "string",
          "name": "addressInfo",
          "type": "string"
        },
        {
          "indexed": false,
          "internalType": "string",
          "name": "profileImageHash",
          "type": "string"
        },
        {
          "indexed": false,
          "internalType": "string",
          "name": "logoImageHash",
          "type": "string"
        }
      ],
      "name": "CandidateAdded",
      "type": "event"
    },
    {
      "inputs": [],
      "name": "candidateCount",
      "outputs": [
        {
          "internalType": "uint256",
          "name": "",
          "type": "uint256"
        }
      ],
      "stateMutability": "view",
      "type": "function"
    },
    {
      "inputs": [
        {
          "internalType": "uint256",
          "name": "",
          "type": "uint256"
        }
      ],
      "name": "candidateIDs",
      "outputs": [
        {
          "internalType": "uint256",
          "name": "",
          "type": "uint256"
        }
      ],
      "stateMutability": "view",
      "type": "function"
    },
    {
      "inputs": [
        {
          "internalType": "uint256",
          "name": "",
          "type": "uint256"
        }
      ],
      "name": "candidates",
      "outputs": [
        {
          "internalType": "string",
          "name": "firstName",
          "type": "string"
        },
        {
          "internalType": "string",
          "name": "lastName",
          "type": "string"
        },
        {
          "internalType": "string",
          "name": "position",
          "type": "string"
        },
        {
          "internalType": "string",
          "name": "addressInfo",
          "type": "string"
        },
        {
          "internalType": "string",
          "name": "profileImageHash",
          "type": "string"
        },
        {
          "internalType": "string",
          "name": "logoImageHash",
          "type": "string"
        },
        {
          "internalType": "uint256",
          "name": "voteCount",
          "type": "uint256"
        }
      ],
      "stateMutability": "view",
      "type": "function"
    },
    {
      "inputs": [],
      "name": "electionAuthority",
      "outputs": [
        {
          "internalType": "address",
          "name": "",
          "type": "address"
        }
      ],
      "stateMutability": "view",
      "type": "function"
    },
    {
      "inputs": [
        {
          "internalType": "string",
          "name": "firstName",
          "type": "string"
        },
        {
          "internalType": "string",
          "name": "lastName",
          "type": "string"
        },
        {
          "internalType": "string",
          "name": "position",
          "type": "string"
        },
        {
          "internalType": "string",
          "name": "addressInfo",
          "type": "string"
        },
        {
          "internalType": "string",
          "name": "profileImageHash",
          "type": "string"
        },
        {
          "internalType": "string",
          "name": "logoImageHash",
          "type": "string"
        }
      ],
      "name": "addCandidate",
      "outputs": [],
      "stateMutability": "nonpayable",
      "type": "function"
    },
    {
      "inputs": [
        {
          "internalType": "uint256",
          "name": "candidateID",
          "type": "uint256"
        }
      ],
      "name": "incrementVoteCount",
      "outputs": [],
      "stateMutability": "nonpayable",
      "type": "function"
    },
    {
      "inputs": [
        {
          "internalType": "uint256",
          "name": "candidateID",
          "type": "uint256"
        }
      ],
      "name": "getCandidate",
      "outputs": [
        {
          "internalType": "string",
          "name": "firstName",
          "type": "string"
        },
        {
          "internalType": "string",
          "name": "lastName",
          "type": "string"
        },
        {
          "internalType": "string",
          "name": "position",
          "type": "string"
        },
        {
          "internalType": "string",
          "name": "addressInfo",
          "type": "string"
        },
        {
          "internalType": "string",
          "name": "profileImageHash",
          "type": "string"
        },
        {
          "internalType": "string",
          "name": "logoImageHash",
          "type": "string"
        },
        {
          "internalType": "uint256",
          "name": "voteCount",
          "type": "uint256"
        }
      ],
      "stateMutability": "view",
      "type": "function"
    },
    {
      "inputs": [],
      "name": "getAllCandidates",
      "outputs": [
        {
          "components": [
            {
              "internalType": "string",
              "name": "firstName",
              "type": "string"
            },
            {
              "internalType": "string",
              "name": "lastName",
              "type": "string"
            },
            {
              "internalType": "string",
              "name": "position",
              "type": "string"
            },
            {
              "internalType": "string",
              "name": "addressInfo",
              "type": "string"
            },
            {
              "internalType": "string",
              "name": "profileImageHash",
              "type": "string"
            },
            {
              "internalType": "string",
              "name": "logoImageHash",
              "type": "string"
            },
            {
              "internalType": "uint256",
              "name": "voteCount",
              "type": "uint256"
            }
          ],
          "internalType": "struct AdminPanel.Candidate[]",
          "name": "",
          "type": "tuple[]"
        }
      ],
      "stateMutability": "view",
      "type": "function"
    }
  ],
  "bytecode": "0x6080604052600060025534801561001557600080fd5b50336000806101000a81548173ffffffffffffffffffffffffffffffffffffffff021916908373ffffffffffffffffffffffffffffffffffffffff160217905550611aba806100656000396000f3fe608060405234801561001057600080fd5b50600436106100885760003560e01c8063a9a981a31161005b578063a9a981a314610147578063bbdac32314610165578063dc46d6ea14610181578063f3b9e61c1461019f57610088565b80632e6997fe1461008d5780633477ee2e146100ab57806335b8e820146100e157806370a56eed14610117575b600080fd5b6100956101bb565b6040516100a2919061160a565b60405180910390f35b6100c560048036038101906100c09190611339565b610681565b6040516100d8979695949392919061162c565b60405180910390f35b6100fb60048036038101906100f69190611339565b6109f3565b60405161010e979695949392919061162c565b60405180910390f35b610131600480360381019061012c9190611339565b610dd2565b60405161013e9190611705565b60405180910390f35b61014f610df6565b60405161015c9190611705565b60405180910390f35b61017f600480360381019061017a9190611220565b610dfc565b005b61018961101e565b60405161019691906115ef565b60405180910390f35b6101b960048036038101906101b49190611339565b611042565b005b6060600060025467ffffffffffffffff811115610201577f4e487b7100000000000000000000000000000000000000000000000000000000600052604160045260246000fd5b60405190808252806020026020018201604052801561023a57816020015b6102276110c3565b81526020019060019003908161021f5790505b50905060005b600254811015610679576001600060038381548110610288577f4e487b7100000000000000000000000000000000000000000000000000000000600052603260045260246000fd5b906000526020600020015481526020019081526020016000206040518060e00160405290816000820180546102bc90611954565b80601f01602080910402602001604051908101604052809291908181526020018280546102e890611954565b80156103355780601f1061030a57610100808354040283529160200191610335565b820191906000526020600020905b81548152906001019060200180831161031857829003601f168201915b5050505050815260200160018201805461034e90611954565b80601f016020809104026020016040519081016040528092919081815260200182805461037a90611954565b80156103c75780601f1061039c576101008083540402835291602001916103c7565b820191906000526020600020905b8154815290600101906020018083116103aa57829003601f168201915b505050505081526020016002820180546103e090611954565b80601f016020809104026020016040519081016040528092919081815260200182805461040c90611954565b80156104595780601f1061042e57610100808354040283529160200191610459565b820191906000526020600020905b81548152906001019060200180831161043c57829003601f168201915b5050505050815260200160038201805461047290611954565b80601f016020809104026020016040519081016040528092919081815260200182805461049e90611954565b80156104eb5780601f106104c0576101008083540402835291602001916104eb565b820191906000526020600020905b8154815290600101906020018083116104ce57829003601f168201915b5050505050815260200160048201805461050490611954565b80601f016020809104026020016040519081016040528092919081815260200182805461053090611954565b801561057d5780601f106105525761010080835404028352916020019161057d565b820191906000526020600020905b81548152906001019060200180831161056057829003601f168201915b5050505050815260200160058201805461059690611954565b80601f01602080910402602001604051908101604052809291908181526020018280546105c290611954565b801561060f5780601f106105e45761010080835404028352916020019161060f565b820191906000526020600020905b8154815290600101906020018083116105f257829003601f168201915b5050505050815260200160068201548152505082828151811061065b577f4e487b7100000000000000000000000000000000000000000000000000000000600052603260045260246000fd5b6020026020010181905250808061067190611986565b915050610240565b508091505090565b60016020528060005260406000206000915090508060000180546106a490611954565b80601f01602080910402602001604051908101604052809291908181526020018280546106d090611954565b801561071d5780601f106106f25761010080835404028352916020019161071d565b820191906000526020600020905b81548152906001019060200180831161070057829003601f168201915b50505050509080600101805461073290611954565b80601f016020809104026020016040519081016040528092919081815260200182805461075e90611954565b80156107ab5780601f10610780576101008083540402835291602001916107ab565b820191906000526020600020905b81548152906001019060200180831161078e57829003601f168201915b5050505050908060020180546107c090611954565b80601f01602080910402602001604051908101604052809291908181526020018280546107ec90611954565b80156108395780601f1061080e57610100808354040283529160200191610839565b820191906000526020600020905b81548152906001019060200180831161081c57829003601f168201915b50505050509080600301805461084e90611954565b80601f016020809104026020016040519081016040528092919081815260200182805461087a90611954565b80156108c75780601f1061089c576101008083540402835291602001916108c7565b820191906000526020600020905b8154815290600101906020018083116108aa57829003601f168201915b5050505050908060040180546108dc90611954565b80601f016020809104026020016040519081016040528092919081815260200182805461090890611954565b80156109555780601f1061092a57610100808354040283529160200191610955565b820191906000526020600020905b81548152906001019060200180831161093857829003601f168201915b50505050509080600501805461096a90611954565b80601f016020809104026020016040519081016040528092919081815260200182805461099690611954565b80156109e35780601f106109b8576101008083540402835291602001916109e3565b820191906000526020600020905b8154815290600101906020018083116109c657829003601f168201915b5050505050908060060154905087565b606080606080606080600080600160008a81526020019081526020016000206040518060e0016040529081600082018054610a2d90611954565b80601f0160208091040260200160405190810160405280929190818152602001828054610a5990611954565b8015610aa65780601f10610a7b57610100808354040283529160200191610aa6565b820191906000526020600020905b815481529060010190602001808311610a8957829003601f168201915b50505050508152602001600182018054610abf90611954565b80601f0160208091040260200160405190810160405280929190818152602001828054610aeb90611954565b8015610b385780601f10610b0d57610100808354040283529160200191610b38565b820191906000526020600020905b815481529060010190602001808311610b1b57829003601f168201915b50505050508152602001600282018054610b5190611954565b80601f0160208091040260200160405190810160405280929190818152602001828054610b7d90611954565b8015610bca5780601f10610b9f57610100808354040283529160200191610bca565b820191906000526020600020905b815481529060010190602001808311610bad57829003601f168201915b50505050508152602001600382018054610be390611954565b80601f0160208091040260200160405190810160405280929190818152602001828054610c0f90611954565b8015610c5c5780601f10610c3157610100808354040283529160200191610c5c565b820191906000526020600020905b815481529060010190602001808311610c3f57829003601f168201915b50505050508152602001600482018054610c7590611954565b80601f0160208091040260200160405190810160405280929190818152602001828054610ca190611954565b8015610cee5780601f10610cc357610100808354040283529160200191610cee565b820191906000526020600020905b815481529060010190602001808311610cd157829003601f168201915b50505050508152602001600582018054610d0790611954565b80601f0160208091040260200160405190810160405280929190818152602001828054610d3390611954565b8015610d805780601f10610d5557610100808354040283529160200191610d80565b820191906000526020600020905b815481529060010190602001808311610d6357829003601f168201915b505050505081526020016006820154815250509050806000015181602001518260400151836060015184608001518560a001518660c00151975097509750975097509750975050919395979092949650565b60038181548110610de257600080fd5b906000526020600020016000915090505481565b60025481565b60008054906101000a900473ffffffffffffffffffffffffffffffffffffffff1673ffffffffffffffffffffffffffffffffffffffff163373ffffffffffffffffffffffffffffffffffffffff1614610e8a576040517f08c379a0000000000000000000000000000000000000000000000000000000008152600401610e81906116c5565b60405180910390fd5b60026000815480929190610e9d90611986565b91905055506040518060e0016040528087815260200186815260200185815260200184815260200183815260200182815260200160008152506001600060025481526020019081526020016000206000820151816000019080519060200190610f07929190611100565b506020820151816001019080519060200190610f24929190611100565b506040820151816002019080519060200190610f41929190611100565b506060820151816003019080519060200190610f5e929190611100565b506080820151816004019080519060200190610f7b929190611100565b5060a0820151816005019080519060200190610f98929190611100565b5060c08201518160060155905050600360025490806001815401808255809150506001900390600052602060002001600090919091909150557f9690875d9417d220650d86e7fdc479bd564065047f7f72345a827d6d98ae486b60025487878787878760405161100e9796959493929190611720565b60405180910390a1505050505050565b60008054906101000a900473ffffffffffffffffffffffffffffffffffffffff1681565b60008111801561105457506002548111155b611093576040517f08c379a000000000000000000000000000000000000000000000000000000000815260040161108a906116e5565b60405180910390fd5b600180600083815260200190815260200160002060060160008282546110b99190611880565b9250508190555050565b6040518060e00160405280606081526020016060815260200160608152602001606081526020016060815260200160608152602001600081525090565b82805461110c90611954565b90600052602060002090601f01602090048101928261112e5760008555611175565b82601f1061114757805160ff1916838001178555611175565b82800160010185558215611175579182015b82811115611174578251825591602001919060010190611159565b5b5090506111829190611186565b5090565b5b8082111561119f576000816000905550600101611187565b5090565b60006111b66111b1846117ea565b6117b9565b9050828152602081018484840111156111ce57600080fd5b6111d9848285611912565b509392505050565b600082601f8301126111f257600080fd5b81356112028482602086016111a3565b91505092915050565b60008135905061121a81611a6d565b92915050565b60008060008060008060c0878903121561123957600080fd5b600087013567ffffffffffffffff81111561125357600080fd5b61125f89828a016111e1565b965050602087013567ffffffffffffffff81111561127c57600080fd5b61128889828a016111e1565b955050604087013567ffffffffffffffff8111156112a557600080fd5b6112b189828a016111e1565b945050606087013567ffffffffffffffff8111156112ce57600080fd5b6112da89828a016111e1565b935050608087013567ffffffffffffffff8111156112f757600080fd5b61130389828a016111e1565b92505060a087013567ffffffffffffffff81111561132057600080fd5b61132c89828a016111e1565b9150509295509295509295565b60006020828403121561134b57600080fd5b60006113598482850161120b565b91505092915050565b600061136e8383611512565b905092915050565b61137f816118d6565b82525050565b60006113908261182a565b61139a818561184d565b9350836020820285016113ac8561181a565b8060005b858110156113e857848403895281516113c98582611362565b94506113d483611840565b925060208a019950506001810190506113b0565b50829750879550505050505092915050565b600061140582611835565b61140f818561185e565b935061141f818560208601611921565b61142881611a5c565b840191505092915050565b600061143e82611835565b611448818561186f565b9350611458818560208601611921565b61146181611a5c565b840191505092915050565b600061147960228361186f565b91507f4f6e6c792061646d696e2063616e20706572666f726d2074686973206163746960008301527f6f6e0000000000000000000000000000000000000000000000000000000000006020830152604082019050919050565b60006114df60148361186f565b91507f496e76616c69642063616e6469646174652049440000000000000000000000006000830152602082019050919050565b600060e083016000830151848203600086015261152f82826113fa565b9150506020830151848203602086015261154982826113fa565b9150506040830151848203604086015261156382826113fa565b9150506060830151848203606086015261157d82826113fa565b9150506080830151848203608086015261159782826113fa565b91505060a083015184820360a08601526115b182826113fa565b91505060c08301516115c660c08601826115d1565b508091505092915050565b6115da81611908565b82525050565b6115e981611908565b82525050565b60006020820190506116046000830184611376565b92915050565b600060208201905081810360008301526116248184611385565b905092915050565b600060e0820190508181036000830152611646818a611433565b9050818103602083015261165a8189611433565b9050818103604083015261166e8188611433565b905081810360608301526116828187611433565b905081810360808301526116968186611433565b905081810360a08301526116aa8185611433565b90506116b960c08301846115e0565b98975050505050505050565b600060208201905081810360008301526116de8161146c565b9050919050565b600060208201905081810360008301526116fe816114d2565b9050919050565b600060208201905061171a60008301846115e0565b92915050565b600060e082019050611735600083018a6115e0565b81810360208301526117478189611433565b9050818103604083015261175b8188611433565b9050818103606083015261176f8187611433565b905081810360808301526117838186611433565b905081810360a08301526117978185611433565b905081810360c08301526117ab8184611433565b905098975050505050505050565b6000604051905081810181811067ffffffffffffffff821117156117e0576117df611a2d565b5b8060405250919050565b600067ffffffffffffffff82111561180557611804611a2d565b5b601f19601f8301169050602081019050919050565b6000819050602082019050919050565b600081519050919050565b600081519050919050565b6000602082019050919050565b600082825260208201905092915050565b600082825260208201905092915050565b600082825260208201905092915050565b600061188b82611908565b915061189683611908565b9250827fffffffffffffffffffffffffffffffffffffffffffffffffffffffffffffffff038211156118cb576118ca6119cf565b5b828201905092915050565b60006118e1826118e8565b9050919050565b600073ffffffffffffffffffffffffffffffffffffffff82169050919050565b6000819050919050565b82818337600083830152505050565b60005b8381101561193f578082015181840152602081019050611924565b8381111561194e576000848401525b50505050565b6000600282049050600182168061196c57607f821691505b602082108114156119805761197f6119fe565b5b50919050565b600061199182611908565b91507fffffffffffffffffffffffffffffffffffffffffffffffffffffffffffffffff8214156119c4576119c36119cf565b5b600182019050919050565b7f4e487b7100000000000000000000000000000000000000000000000000000000600052601160045260246000fd5b7f4e487b7100000000000000000000000000000000000000000000000000000000600052602260045260246000fd5b7f4e487b7100000000000000000000000000000000000000000000000000000000600052604160045260246000fd5b6000601f19601f8301169050919050565b611a7681611908565b8114611a8157600080fd5b5056fea264697066735822122019a8839064496178bd97a253629b91af63b02239fd852663ac3c699067b6c26e64736f6c63430008000033",
  "immutableReferences": {},
  "source": "// SPDX-License-Identifier: MIT\r\npragma solidity ^0.8.0;\r\n\r\ncontract AdminPanel {\r\n    // Struct to hold candidate details\r\n    struct Candidate {\r\n        string firstName;\r\n        string lastName;\r\n        string position;\r\n        string addressInfo; \r\n        string profileImageHash; \r\n        string logoImageHash;    \r\n        uint256 voteCount;\r\n    }\r\n\r\n    // Address of the election authority (admin) state variable\r\n    address public electionAuthority;\r\n\r\n    // Mapping to store candidates with an incremental ID\r\n    mapping(uint256 => Candidate) public candidates;\r\n    uint256 public candidateCount = 0;\r\n\r\n    // Array to keep track of candidate IDs\r\n    uint256[] public candidateIDs;\r\n\r\n    // Modifier to restrict certain functions to only the admin (electionAuthority)\r\n    modifier onlyAdmin() {\r\n        require(\r\n            msg.sender == electionAuthority,\r\n            \"Only admin can perform this action\"\r\n        );\r\n        _;\r\n    }\r\n\r\n    // Constructor to initialize the contract with the admin's address\r\n    constructor() {\r\n        electionAuthority = msg.sender; \r\n    }\r\n\r\n    // Event to log candidate addition\r\n    event CandidateAdded(\r\n        uint256 candidateID,\r\n        string firstName,\r\n        string lastName,\r\n        string position,\r\n        string addressInfo,\r\n        string profileImageHash,\r\n        string logoImageHash\r\n    );\r\n\r\n    // Function to add a candidate (Only admin can add)\r\n    function addCandidate(\r\n        string memory firstName,\r\n        string memory lastName,\r\n        string memory position,\r\n        string memory addressInfo,\r\n        string memory profileImageHash, \r\n        string memory logoImageHash      \r\n    ) public onlyAdmin {\r\n        candidateCount++;\r\n        candidates[candidateCount] = Candidate({\r\n            firstName: firstName,\r\n            lastName: lastName,\r\n            position: position,\r\n            addressInfo: addressInfo,\r\n            profileImageHash: profileImageHash, \r\n            logoImageHash: logoImageHash,       \r\n            voteCount: 0 \r\n        });\r\n\r\n        // Add the new candidate ID to the array\r\n        candidateIDs.push(candidateCount);\r\n\r\n        // Emit event when a candidate is added\r\n        emit CandidateAdded(\r\n            candidateCount,\r\n            firstName,\r\n            lastName,\r\n            position,\r\n            addressInfo,\r\n            profileImageHash, \r\n            logoImageHash    \r\n        );\r\n    }\r\n\r\n    // Function to increment the vote count for a candidate\r\n    function incrementVoteCount(uint256 candidateID) external {\r\n        require(candidateID > 0 && candidateID <= candidateCount, \"Invalid candidate ID\");\r\n        candidates[candidateID].voteCount += 1; // Increment the vote count\r\n    }\r\n\r\n    // Function to get candidate details by ID\r\n    function getCandidate(\r\n        uint256 candidateID\r\n    )\r\n        public\r\n        view\r\n        returns (\r\n            string memory firstName,\r\n            string memory lastName,\r\n            string memory position,\r\n            string memory addressInfo,\r\n            string memory profileImageHash, \r\n            string memory logoImageHash,     \r\n            uint256 voteCount\r\n        )\r\n    {\r\n        Candidate memory candidate = candidates[candidateID];\r\n        return (\r\n            candidate.firstName,\r\n            candidate.lastName,\r\n            candidate.position,\r\n            candidate.addressInfo,\r\n            candidate.profileImageHash, \r\n            candidate.logoImageHash,     \r\n            candidate.voteCount\r\n        );\r\n    }\r\n\r\n    // Function to get all candidates' details\r\n    function getAllCandidates() public view returns (Candidate[] memory) {\r\n        Candidate[] memory allCandidates = new Candidate[](candidateCount);\r\n        for (uint256 i = 0; i < candidateCount; i++) {\r\n            allCandidates[i] = candidates[candidateIDs[i]];\r\n        }\r\n        return allCandidates;\r\n    }\r\n}\r\n",
  "sourcePath": "C:\\Users\\Dell\\Desktop\\QuickVote\\ethereum\\contracts\\AdminPanel.sol",
  "compiler": {
    "name": "solc",
    "version": "0.8.0+commit.c7dfd78e.Emscripten.clang"
  },
  "schemaVersion": "3.4.16",
  "updatedAt": "2024-12-02T15:11:16.959Z",
  "devdoc": {
    "kind": "dev",
    "methods": {},
    "version": 1
  },
  "userdoc": {
    "kind": "user",
    "methods": {},
    "version": 1
  }
}