{
  "contractName": "AdminPanel",
  "abi": [
    {
      "inputs": [],
      "stateMutability": "nonpayable",
      "type": "constructor"
    },
    {
      "anonymous": false,
      "inputs": [
        {
          "indexed": false,
          "internalType": "uint256",
          "name": "candidateID",
          "type": "uint256"
        },
        {
          "indexed": false,
          "internalType": "string",
          "name": "firstName",
          "type": "string"
        },
        {
          "indexed": false,
          "internalType": "string",
          "name": "lastName",
          "type": "string"
        },
        {
          "indexed": false,
          "internalType": "string",
          "name": "position",
          "type": "string"
        },
        {
          "indexed": false,
          "internalType": "string",
          "name": "addressInfo",
          "type": "string"
        },
        {
          "indexed": false,
          "internalType": "string",
          "name": "profileImageHash",
          "type": "string"
        },
        {
          "indexed": false,
          "internalType": "string",
          "name": "logoImageHash",
          "type": "string"
        }
      ],
      "name": "CandidateAdded",
      "type": "event"
    },
    {
      "anonymous": false,
      "inputs": [],
      "name": "CandidatesReset",
      "type": "event"
    },
    {
      "inputs": [],
      "name": "candidateCount",
      "outputs": [
        {
          "internalType": "uint256",
          "name": "",
          "type": "uint256"
        }
      ],
      "stateMutability": "view",
      "type": "function"
    },
    {
      "inputs": [
        {
          "internalType": "uint256",
          "name": "",
          "type": "uint256"
        }
      ],
      "name": "candidateIDs",
      "outputs": [
        {
          "internalType": "uint256",
          "name": "",
          "type": "uint256"
        }
      ],
      "stateMutability": "view",
      "type": "function"
    },
    {
      "inputs": [
        {
          "internalType": "uint256",
          "name": "",
          "type": "uint256"
        }
      ],
      "name": "candidates",
      "outputs": [
        {
          "internalType": "string",
          "name": "firstName",
          "type": "string"
        },
        {
          "internalType": "string",
          "name": "lastName",
          "type": "string"
        },
        {
          "internalType": "string",
          "name": "position",
          "type": "string"
        },
        {
          "internalType": "string",
          "name": "addressInfo",
          "type": "string"
        },
        {
          "internalType": "string",
          "name": "profileImageHash",
          "type": "string"
        },
        {
          "internalType": "string",
          "name": "logoImageHash",
          "type": "string"
        },
        {
          "internalType": "uint256",
          "name": "voteCount",
          "type": "uint256"
        }
      ],
      "stateMutability": "view",
      "type": "function"
    },
    {
      "inputs": [],
      "name": "electionAuthority",
      "outputs": [
        {
          "internalType": "address",
          "name": "",
          "type": "address"
        }
      ],
      "stateMutability": "view",
      "type": "function"
    },
    {
      "inputs": [
        {
          "internalType": "string",
          "name": "firstName",
          "type": "string"
        },
        {
          "internalType": "string",
          "name": "lastName",
          "type": "string"
        },
        {
          "internalType": "string",
          "name": "position",
          "type": "string"
        },
        {
          "internalType": "string",
          "name": "addressInfo",
          "type": "string"
        },
        {
          "internalType": "string",
          "name": "profileImageHash",
          "type": "string"
        },
        {
          "internalType": "string",
          "name": "logoImageHash",
          "type": "string"
        }
      ],
      "name": "addCandidate",
      "outputs": [],
      "stateMutability": "nonpayable",
      "type": "function"
    },
    {
      "inputs": [
        {
          "internalType": "uint256",
          "name": "candidateID",
          "type": "uint256"
        }
      ],
      "name": "incrementVoteCount",
      "outputs": [],
      "stateMutability": "nonpayable",
      "type": "function"
    },
    {
      "inputs": [],
      "name": "resetCandidates",
      "outputs": [],
      "stateMutability": "nonpayable",
      "type": "function"
    },
    {
      "inputs": [
        {
          "internalType": "uint256",
          "name": "candidateID",
          "type": "uint256"
        }
      ],
      "name": "getCandidate",
      "outputs": [
        {
          "internalType": "string",
          "name": "firstName",
          "type": "string"
        },
        {
          "internalType": "string",
          "name": "lastName",
          "type": "string"
        },
        {
          "internalType": "string",
          "name": "position",
          "type": "string"
        },
        {
          "internalType": "string",
          "name": "addressInfo",
          "type": "string"
        },
        {
          "internalType": "string",
          "name": "profileImageHash",
          "type": "string"
        },
        {
          "internalType": "string",
          "name": "logoImageHash",
          "type": "string"
        },
        {
          "internalType": "uint256",
          "name": "voteCount",
          "type": "uint256"
        }
      ],
      "stateMutability": "view",
      "type": "function"
    },
    {
      "inputs": [],
      "name": "getAllCandidates",
      "outputs": [
        {
          "components": [
            {
              "internalType": "string",
              "name": "firstName",
              "type": "string"
            },
            {
              "internalType": "string",
              "name": "lastName",
              "type": "string"
            },
            {
              "internalType": "string",
              "name": "position",
              "type": "string"
            },
            {
              "internalType": "string",
              "name": "addressInfo",
              "type": "string"
            },
            {
              "internalType": "string",
              "name": "profileImageHash",
              "type": "string"
            },
            {
              "internalType": "string",
              "name": "logoImageHash",
              "type": "string"
            },
            {
              "internalType": "uint256",
              "name": "voteCount",
              "type": "uint256"
            }
          ],
          "internalType": "struct AdminPanel.Candidate[]",
          "name": "",
          "type": "tuple[]"
        }
      ],
      "stateMutability": "view",
      "type": "function"
    },
    {
      "inputs": [],
      "name": "getWinner",
      "outputs": [
        {
          "internalType": "uint256",
          "name": "winnerID",
          "type": "uint256"
        },
        {
          "internalType": "string",
          "name": "firstName",
          "type": "string"
        },
        {
          "internalType": "string",
          "name": "lastName",
          "type": "string"
        },
        {
          "internalType": "string",
          "name": "position",
          "type": "string"
        },
        {
          "internalType": "uint256",
          "name": "voteCount",
          "type": "uint256"
        }
      ],
      "stateMutability": "view",
      "type": "function"
    }
  ],
  "bytecode": "0x6080604052600060025534801561001557600080fd5b50336000806101000a81548173ffffffffffffffffffffffffffffffffffffffff021916908373ffffffffffffffffffffffffffffffffffffffff160217905550612209806100656000396000f3fe608060405234801561001057600080fd5b506004361061009e5760003560e01c80638e7ea5b2116100665780638e7ea5b214610167578063a9a981a314610189578063bbdac323146101a7578063dc46d6ea146101c3578063f3b9e61c146101e15761009e565b80632e6997fe146100a35780633477ee2e146100c157806335b8e820146100f757806370a56eed1461012d5780637718d9f31461015d575b600080fd5b6100ab6101fd565b6040516100b89190611cd1565b60405180910390f35b6100db60048036038101906100d691906119c0565b6106c3565b6040516100ee9796959493929190611cf3565b60405180910390f35b610111600480360381019061010c91906119c0565b610a35565b6040516101249796959493929190611cf3565b60405180910390f35b610147600480360381019061014291906119c0565b610e14565b6040516101549190611dec565b60405180910390f35b610165610e38565b005b61016f610fac565b604051610180959493929190611ea0565b60405180910390f35b61019161141c565b60405161019e9190611dec565b60405180910390f35b6101c160048036038101906101bc91906118a7565b611422565b005b6101cb611644565b6040516101d89190611cb6565b60405180910390f35b6101fb60048036038101906101f691906119c0565b611668565b005b6060600060025467ffffffffffffffff811115610243577f4e487b7100000000000000000000000000000000000000000000000000000000600052604160045260246000fd5b60405190808252806020026020018201604052801561027c57816020015b6102696116e9565b8152602001906001900390816102615790505b50905060005b6002548110156106bb5760016000600383815481106102ca577f4e487b7100000000000000000000000000000000000000000000000000000000600052603260045260246000fd5b906000526020600020015481526020019081526020016000206040518060e00160405290816000820180546102fe906120a3565b80601f016020809104026020016040519081016040528092919081815260200182805461032a906120a3565b80156103775780601f1061034c57610100808354040283529160200191610377565b820191906000526020600020905b81548152906001019060200180831161035a57829003601f168201915b50505050508152602001600182018054610390906120a3565b80601f01602080910402602001604051908101604052809291908181526020018280546103bc906120a3565b80156104095780601f106103de57610100808354040283529160200191610409565b820191906000526020600020905b8154815290600101906020018083116103ec57829003601f168201915b50505050508152602001600282018054610422906120a3565b80601f016020809104026020016040519081016040528092919081815260200182805461044e906120a3565b801561049b5780601f106104705761010080835404028352916020019161049b565b820191906000526020600020905b81548152906001019060200180831161047e57829003601f168201915b505050505081526020016003820180546104b4906120a3565b80601f01602080910402602001604051908101604052809291908181526020018280546104e0906120a3565b801561052d5780601f106105025761010080835404028352916020019161052d565b820191906000526020600020905b81548152906001019060200180831161051057829003601f168201915b50505050508152602001600482018054610546906120a3565b80601f0160208091040260200160405190810160405280929190818152602001828054610572906120a3565b80156105bf5780601f10610594576101008083540402835291602001916105bf565b820191906000526020600020905b8154815290600101906020018083116105a257829003601f168201915b505050505081526020016005820180546105d8906120a3565b80601f0160208091040260200160405190810160405280929190818152602001828054610604906120a3565b80156106515780601f1061062657610100808354040283529160200191610651565b820191906000526020600020905b81548152906001019060200180831161063457829003601f168201915b5050505050815260200160068201548152505082828151811061069d577f4e487b7100000000000000000000000000000000000000000000000000000000600052603260045260246000fd5b602002602001018190525080806106b3906120d5565b915050610282565b508091505090565b60016020528060005260406000206000915090508060000180546106e6906120a3565b80601f0160208091040260200160405190810160405280929190818152602001828054610712906120a3565b801561075f5780601f106107345761010080835404028352916020019161075f565b820191906000526020600020905b81548152906001019060200180831161074257829003601f168201915b505050505090806001018054610774906120a3565b80601f01602080910402602001604051908101604052809291908181526020018280546107a0906120a3565b80156107ed5780601f106107c2576101008083540402835291602001916107ed565b820191906000526020600020905b8154815290600101906020018083116107d057829003601f168201915b505050505090806002018054610802906120a3565b80601f016020809104026020016040519081016040528092919081815260200182805461082e906120a3565b801561087b5780601f106108505761010080835404028352916020019161087b565b820191906000526020600020905b81548152906001019060200180831161085e57829003601f168201915b505050505090806003018054610890906120a3565b80601f01602080910402602001604051908101604052809291908181526020018280546108bc906120a3565b80156109095780601f106108de57610100808354040283529160200191610909565b820191906000526020600020905b8154815290600101906020018083116108ec57829003601f168201915b50505050509080600401805461091e906120a3565b80601f016020809104026020016040519081016040528092919081815260200182805461094a906120a3565b80156109975780601f1061096c57610100808354040283529160200191610997565b820191906000526020600020905b81548152906001019060200180831161097a57829003601f168201915b5050505050908060050180546109ac906120a3565b80601f01602080910402602001604051908101604052809291908181526020018280546109d8906120a3565b8015610a255780601f106109fa57610100808354040283529160200191610a25565b820191906000526020600020905b815481529060010190602001808311610a0857829003601f168201915b5050505050908060060154905087565b606080606080606080600080600160008a81526020019081526020016000206040518060e0016040529081600082018054610a6f906120a3565b80601f0160208091040260200160405190810160405280929190818152602001828054610a9b906120a3565b8015610ae85780601f10610abd57610100808354040283529160200191610ae8565b820191906000526020600020905b815481529060010190602001808311610acb57829003601f168201915b50505050508152602001600182018054610b01906120a3565b80601f0160208091040260200160405190810160405280929190818152602001828054610b2d906120a3565b8015610b7a5780601f10610b4f57610100808354040283529160200191610b7a565b820191906000526020600020905b815481529060010190602001808311610b5d57829003601f168201915b50505050508152602001600282018054610b93906120a3565b80601f0160208091040260200160405190810160405280929190818152602001828054610bbf906120a3565b8015610c0c5780601f10610be157610100808354040283529160200191610c0c565b820191906000526020600020905b815481529060010190602001808311610bef57829003601f168201915b50505050508152602001600382018054610c25906120a3565b80601f0160208091040260200160405190810160405280929190818152602001828054610c51906120a3565b8015610c9e5780601f10610c7357610100808354040283529160200191610c9e565b820191906000526020600020905b815481529060010190602001808311610c8157829003601f168201915b50505050508152602001600482018054610cb7906120a3565b80601f0160208091040260200160405190810160405280929190818152602001828054610ce3906120a3565b8015610d305780601f10610d0557610100808354040283529160200191610d30565b820191906000526020600020905b815481529060010190602001808311610d1357829003601f168201915b50505050508152602001600582018054610d49906120a3565b80601f0160208091040260200160405190810160405280929190818152602001828054610d75906120a3565b8015610dc25780601f10610d9757610100808354040283529160200191610dc2565b820191906000526020600020905b815481529060010190602001808311610da557829003601f168201915b505050505081526020016006820154815250509050806000015181602001518260400151836060015184608001518560a001518660c00151975097509750975097509750975050919395979092949650565b60038181548110610e2457600080fd5b906000526020600020016000915090505481565b60008054906101000a900473ffffffffffffffffffffffffffffffffffffffff1673ffffffffffffffffffffffffffffffffffffffff163373ffffffffffffffffffffffffffffffffffffffff1614610ec6576040517f08c379a0000000000000000000000000000000000000000000000000000000008152600401610ebd90611d8c565b60405180910390fd5b6000600190505b6002548111610f67576001600082815260200190815260200160002060008082016000610efa9190611726565b600182016000610f0a9190611726565b600282016000610f1a9190611726565b600382016000610f2a9190611726565b600482016000610f3a9190611726565b600582016000610f4a9190611726565b600682016000905550508080610f5f906120d5565b915050610ecd565b50600060028190555060036000610f7e9190611766565b7f800bdaa40887ccfd790fdc79f47cf3acbb2a1ecf28b3bccb67e3719009c1bab260405160405180910390a1565b6000606080606060008060025411610ff9576040517f08c379a0000000000000000000000000000000000000000000000000000000008152600401610ff090611dcc565b60405180910390fd5b6000806000600190505b600254811161105a57826001600083815260200190815260200160002060060154111561104757600160008281526020019081526020016000206006015492508091505b8080611052906120d5565b915050611003565b506000600160008381526020019081526020016000206040518060e001604052908160008201805461108b906120a3565b80601f01602080910402602001604051908101604052809291908181526020018280546110b7906120a3565b80156111045780601f106110d957610100808354040283529160200191611104565b820191906000526020600020905b8154815290600101906020018083116110e757829003601f168201915b5050505050815260200160018201805461111d906120a3565b80601f0160208091040260200160405190810160405280929190818152602001828054611149906120a3565b80156111965780601f1061116b57610100808354040283529160200191611196565b820191906000526020600020905b81548152906001019060200180831161117957829003601f168201915b505050505081526020016002820180546111af906120a3565b80601f01602080910402602001604051908101604052809291908181526020018280546111db906120a3565b80156112285780601f106111fd57610100808354040283529160200191611228565b820191906000526020600020905b81548152906001019060200180831161120b57829003601f168201915b50505050508152602001600382018054611241906120a3565b80601f016020809104026020016040519081016040528092919081815260200182805461126d906120a3565b80156112ba5780601f1061128f576101008083540402835291602001916112ba565b820191906000526020600020905b81548152906001019060200180831161129d57829003601f168201915b505050505081526020016004820180546112d3906120a3565b80601f01602080910402602001604051908101604052809291908181526020018280546112ff906120a3565b801561134c5780601f106113215761010080835404028352916020019161134c565b820191906000526020600020905b81548152906001019060200180831161132f57829003601f168201915b50505050508152602001600582018054611365906120a3565b80601f0160208091040260200160405190810160405280929190818152602001828054611391906120a3565b80156113de5780601f106113b3576101008083540402835291602001916113de565b820191906000526020600020905b8154815290600101906020018083116113c157829003601f168201915b505050505081526020016006820154815250509050818160000151826020015183604001518460c00151975097509750975097505050509091929394565b60025481565b60008054906101000a900473ffffffffffffffffffffffffffffffffffffffff1673ffffffffffffffffffffffffffffffffffffffff163373ffffffffffffffffffffffffffffffffffffffff16146114b0576040517f08c379a00000000000000000000000000000000000000000000000000000000081526004016114a790611d8c565b60405180910390fd5b600260008154809291906114c3906120d5565b91905055506040518060e001604052808781526020018681526020018581526020018481526020018381526020018281526020016000815250600160006002548152602001908152602001600020600082015181600001908051906020019061152d929190611787565b50602082015181600101908051906020019061154a929190611787565b506040820151816002019080519060200190611567929190611787565b506060820151816003019080519060200190611584929190611787565b5060808201518160040190805190602001906115a1929190611787565b5060a08201518160050190805190602001906115be929190611787565b5060c08201518160060155905050600360025490806001815401808255809150506001900390600052602060002001600090919091909150557f9690875d9417d220650d86e7fdc479bd564065047f7f72345a827d6d98ae486b6002548787878787876040516116349796959493929190611e07565b60405180910390a1505050505050565b60008054906101000a900473ffffffffffffffffffffffffffffffffffffffff1681565b60008111801561167a57506002548111155b6116b9576040517f08c379a00000000000000000000000000000000000000000000000000000000081526004016116b090611dac565b60405180910390fd5b600180600083815260200190815260200160002060060160008282546116df9190611fcf565b9250508190555050565b6040518060e00160405280606081526020016060815260200160608152602001606081526020016060815260200160608152602001600081525090565b508054611732906120a3565b6000825580601f106117445750611763565b601f016020900490600052602060002090810190611762919061180d565b5b50565b5080546000825590600052602060002090810190611784919061180d565b50565b828054611793906120a3565b90600052602060002090601f0160209004810192826117b557600085556117fc565b82601f106117ce57805160ff19168380011785556117fc565b828001600101855582156117fc579182015b828111156117fb5782518255916020019190600101906117e0565b5b509050611809919061180d565b5090565b5b8082111561182657600081600090555060010161180e565b5090565b600061183d61183884611f39565b611f08565b90508281526020810184848401111561185557600080fd5b611860848285612061565b509392505050565b600082601f83011261187957600080fd5b813561188984826020860161182a565b91505092915050565b6000813590506118a1816121bc565b92915050565b60008060008060008060c087890312156118c057600080fd5b600087013567ffffffffffffffff8111156118da57600080fd5b6118e689828a01611868565b965050602087013567ffffffffffffffff81111561190357600080fd5b61190f89828a01611868565b955050604087013567ffffffffffffffff81111561192c57600080fd5b61193889828a01611868565b945050606087013567ffffffffffffffff81111561195557600080fd5b61196189828a01611868565b935050608087013567ffffffffffffffff81111561197e57600080fd5b61198a89828a01611868565b92505060a087013567ffffffffffffffff8111156119a757600080fd5b6119b389828a01611868565b9150509295509295509295565b6000602082840312156119d257600080fd5b60006119e084828501611892565b91505092915050565b60006119f58383611bd9565b905092915050565b611a0681612025565b82525050565b6000611a1782611f79565b611a218185611f9c565b935083602082028501611a3385611f69565b8060005b85811015611a6f5784840389528151611a5085826119e9565b9450611a5b83611f8f565b925060208a01995050600181019050611a37565b50829750879550505050505092915050565b6000611a8c82611f84565b611a968185611fad565b9350611aa6818560208601612070565b611aaf816121ab565b840191505092915050565b6000611ac582611f84565b611acf8185611fbe565b9350611adf818560208601612070565b611ae8816121ab565b840191505092915050565b6000611b00602283611fbe565b91507f4f6e6c792061646d696e2063616e20706572666f726d2074686973206163746960008301527f6f6e0000000000000000000000000000000000000000000000000000000000006020830152604082019050919050565b6000611b66601483611fbe565b91507f496e76616c69642063616e6469646174652049440000000000000000000000006000830152602082019050919050565b6000611ba6601883611fbe565b91507f4e6f2063616e6469646174657320617661696c61626c652e00000000000000006000830152602082019050919050565b600060e0830160008301518482036000860152611bf68282611a81565b91505060208301518482036020860152611c108282611a81565b91505060408301518482036040860152611c2a8282611a81565b91505060608301518482036060860152611c448282611a81565b91505060808301518482036080860152611c5e8282611a81565b91505060a083015184820360a0860152611c788282611a81565b91505060c0830151611c8d60c0860182611c98565b508091505092915050565b611ca181612057565b82525050565b611cb081612057565b82525050565b6000602082019050611ccb60008301846119fd565b92915050565b60006020820190508181036000830152611ceb8184611a0c565b905092915050565b600060e0820190508181036000830152611d0d818a611aba565b90508181036020830152611d218189611aba565b90508181036040830152611d358188611aba565b90508181036060830152611d498187611aba565b90508181036080830152611d5d8186611aba565b905081810360a0830152611d718185611aba565b9050611d8060c0830184611ca7565b98975050505050505050565b60006020820190508181036000830152611da581611af3565b9050919050565b60006020820190508181036000830152611dc581611b59565b9050919050565b60006020820190508181036000830152611de581611b99565b9050919050565b6000602082019050611e016000830184611ca7565b92915050565b600060e082019050611e1c600083018a611ca7565b8181036020830152611e2e8189611aba565b90508181036040830152611e428188611aba565b90508181036060830152611e568187611aba565b90508181036080830152611e6a8186611aba565b905081810360a0830152611e7e8185611aba565b905081810360c0830152611e928184611aba565b905098975050505050505050565b600060a082019050611eb56000830188611ca7565b8181036020830152611ec78187611aba565b90508181036040830152611edb8186611aba565b90508181036060830152611eef8185611aba565b9050611efe6080830184611ca7565b9695505050505050565b6000604051905081810181811067ffffffffffffffff82111715611f2f57611f2e61217c565b5b8060405250919050565b600067ffffffffffffffff821115611f5457611f5361217c565b5b601f19601f8301169050602081019050919050565b6000819050602082019050919050565b600081519050919050565b600081519050919050565b6000602082019050919050565b600082825260208201905092915050565b600082825260208201905092915050565b600082825260208201905092915050565b6000611fda82612057565b9150611fe583612057565b9250827fffffffffffffffffffffffffffffffffffffffffffffffffffffffffffffffff0382111561201a5761201961211e565b5b828201905092915050565b600061203082612037565b9050919050565b600073ffffffffffffffffffffffffffffffffffffffff82169050919050565b6000819050919050565b82818337600083830152505050565b60005b8381101561208e578082015181840152602081019050612073565b8381111561209d576000848401525b50505050565b600060028204905060018216806120bb57607f821691505b602082108114156120cf576120ce61214d565b5b50919050565b60006120e082612057565b91507fffffffffffffffffffffffffffffffffffffffffffffffffffffffffffffffff8214156121135761211261211e565b5b600182019050919050565b7f4e487b7100000000000000000000000000000000000000000000000000000000600052601160045260246000fd5b7f4e487b7100000000000000000000000000000000000000000000000000000000600052602260045260246000fd5b7f4e487b7100000000000000000000000000000000000000000000000000000000600052604160045260246000fd5b6000601f19601f8301169050919050565b6121c581612057565b81146121d057600080fd5b5056fea2646970667358221220a24d5e6a6281843c0839aed62ab2970712574148441da1f44274a14227ac851964736f6c63430008000033",
  "immutableReferences": {},
  "source": "// SPDX-License-Identifier: MIT\r\npragma solidity ^0.8.0;\r\n\r\ncontract AdminPanel {\r\n    // Struct to hold candidate details\r\n    struct Candidate {\r\n        string firstName;\r\n        string lastName;\r\n        string position;\r\n        string addressInfo;\r\n        string profileImageHash;\r\n        string logoImageHash;\r\n        uint256 voteCount;\r\n    }\r\n\r\n    // Address of the election authority (admin) state variable\r\n    address public electionAuthority;\r\n\r\n    // Mapping to store candidates with an incremental ID\r\n    mapping(uint256 => Candidate) public candidates;\r\n    uint256 public candidateCount = 0;\r\n\r\n    // Array to keep track of candidate IDs\r\n    uint256[] public candidateIDs;\r\n\r\n    // Modifier to restrict certain functions to only the admin (electionAuthority)\r\n    modifier onlyAdmin() {\r\n        require(\r\n            msg.sender == electionAuthority,\r\n            \"Only admin can perform this action\"\r\n        );\r\n        _;\r\n    }\r\n\r\n    // Constructor to initialize the contract with the admin's address\r\n    constructor() {\r\n        electionAuthority = msg.sender;\r\n    }\r\n\r\n    // Event to log candidate addition\r\n    event CandidateAdded(\r\n        uint256 candidateID,\r\n        string firstName,\r\n        string lastName,\r\n        string position,\r\n        string addressInfo,\r\n        string profileImageHash,\r\n        string logoImageHash\r\n    );\r\n\r\n    // Event to log reset action\r\n    event CandidatesReset();\r\n\r\n    // Function to add a candidate (Only admin can add)\r\n    function addCandidate(\r\n        string memory firstName,\r\n        string memory lastName,\r\n        string memory position,\r\n        string memory addressInfo,\r\n        string memory profileImageHash,\r\n        string memory logoImageHash\r\n    ) public onlyAdmin {\r\n        candidateCount++;\r\n        candidates[candidateCount] = Candidate({\r\n            firstName: firstName,\r\n            lastName: lastName,\r\n            position: position,\r\n            addressInfo: addressInfo,\r\n            profileImageHash: profileImageHash,\r\n            logoImageHash: logoImageHash,\r\n            voteCount: 0\r\n        });\r\n\r\n        // Add the new candidate ID to the array\r\n        candidateIDs.push(candidateCount);\r\n\r\n        // Emit event when a candidate is added\r\n        emit CandidateAdded(\r\n            candidateCount,\r\n            firstName,\r\n            lastName,\r\n            position,\r\n            addressInfo,\r\n            profileImageHash,\r\n            logoImageHash\r\n        );\r\n    }\r\n\r\n    // Function to increment the vote count for a candidate\r\n    function incrementVoteCount(uint256 candidateID) external {\r\n        require(candidateID > 0 && candidateID <= candidateCount, \"Invalid candidate ID\");\r\n        candidates[candidateID].voteCount += 1; // Increment the vote count\r\n    }\r\n\r\n    // Function to reset all candidates\r\n    function resetCandidates() public onlyAdmin {\r\n        // Reset all candidate data\r\n        for (uint256 i = 1; i <= candidateCount; i++) {\r\n            delete candidates[i];\r\n        }\r\n\r\n        // Reset candidate count and clear candidate IDs\r\n        candidateCount = 0;\r\n        delete candidateIDs;\r\n\r\n        // Emit event for reset action\r\n        emit CandidatesReset();\r\n    }\r\n\r\n    // Function to get candidate details by ID\r\n    function getCandidate(\r\n        uint256 candidateID\r\n    )\r\n        public\r\n        view\r\n        returns (\r\n            string memory firstName,\r\n            string memory lastName,\r\n            string memory position,\r\n            string memory addressInfo,\r\n            string memory profileImageHash,\r\n            string memory logoImageHash,\r\n            uint256 voteCount\r\n        )\r\n    {\r\n        Candidate memory candidate = candidates[candidateID];\r\n        return (\r\n            candidate.firstName,\r\n            candidate.lastName,\r\n            candidate.position,\r\n            candidate.addressInfo,\r\n            candidate.profileImageHash,\r\n            candidate.logoImageHash,\r\n            candidate.voteCount\r\n        );\r\n    }\r\n\r\n    // Function to get all candidates' details\r\n    function getAllCandidates() public view returns (Candidate[] memory) {\r\n        Candidate[] memory allCandidates = new Candidate[](candidateCount);\r\n        for (uint256 i = 0; i < candidateCount; i++) {\r\n            allCandidates[i] = candidates[candidateIDs[i]];\r\n        }\r\n        return allCandidates;\r\n    }\r\n\r\n    // Function to get the winner\r\n    function getWinner() public view returns (\r\n        uint256 winnerID,\r\n        string memory firstName,\r\n        string memory lastName,\r\n        string memory position,\r\n        uint256 voteCount\r\n    ) {\r\n        require(candidateCount > 0, \"No candidates available.\");\r\n\r\n        uint256 maxVotes = 0;\r\n        uint256 winningCandidateID = 0;\r\n\r\n        for (uint256 i = 1; i <= candidateCount; i++) {\r\n            if (candidates[i].voteCount > maxVotes) {\r\n                maxVotes = candidates[i].voteCount;\r\n                winningCandidateID = i;\r\n            }\r\n        }\r\n\r\n        Candidate memory winner = candidates[winningCandidateID];\r\n        return (\r\n            winningCandidateID,\r\n            winner.firstName,\r\n            winner.lastName,\r\n            winner.position,\r\n            winner.voteCount\r\n        );\r\n    }\r\n}\r\n",
  "sourcePath": "C:\\Users\\Dell\\Desktop\\QuickVote\\ethereum\\contracts\\AdminPanel.sol",
  "compiler": {
    "name": "solc",
    "version": "0.8.0+commit.c7dfd78e.Emscripten.clang"
  },
  "schemaVersion": "3.4.16",
  "updatedAt": "2024-12-03T15:09:00.173Z",
  "devdoc": {
    "kind": "dev",
    "methods": {},
    "version": 1
  },
  "userdoc": {
    "kind": "user",
    "methods": {},
    "version": 1
  }
}