{
  "contractName": "Election",
  "abi": [
    {
      "inputs": [],
      "stateMutability": "nonpayable",
      "type": "constructor"
    },
    {
      "anonymous": false,
      "inputs": [
        {
          "indexed": false,
          "internalType": "uint256",
          "name": "candidateID",
          "type": "uint256"
        },
        {
          "indexed": false,
          "internalType": "string",
          "name": "firstName",
          "type": "string"
        },
        {
          "indexed": false,
          "internalType": "string",
          "name": "lastName",
          "type": "string"
        },
        {
          "indexed": false,
          "internalType": "string",
          "name": "position",
          "type": "string"
        },
        {
          "indexed": false,
          "internalType": "string",
          "name": "addressInfo",
          "type": "string"
        }
      ],
      "name": "CandidateAdded",
      "type": "event"
    },
    {
      "inputs": [],
      "name": "candidateCount",
      "outputs": [
        {
          "internalType": "uint256",
          "name": "",
          "type": "uint256"
        }
      ],
      "stateMutability": "view",
      "type": "function"
    },
    {
      "inputs": [
        {
          "internalType": "uint256",
          "name": "",
          "type": "uint256"
        }
      ],
      "name": "candidates",
      "outputs": [
        {
          "internalType": "string",
          "name": "firstName",
          "type": "string"
        },
        {
          "internalType": "string",
          "name": "lastName",
          "type": "string"
        },
        {
          "internalType": "string",
          "name": "position",
          "type": "string"
        },
        {
          "internalType": "string",
          "name": "addressInfo",
          "type": "string"
        },
        {
          "internalType": "uint256",
          "name": "voteCount",
          "type": "uint256"
        }
      ],
      "stateMutability": "view",
      "type": "function"
    },
    {
      "inputs": [],
      "name": "electionAuthority",
      "outputs": [
        {
          "internalType": "address",
          "name": "",
          "type": "address"
        }
      ],
      "stateMutability": "view",
      "type": "function"
    },
    {
      "inputs": [
        {
          "internalType": "string",
          "name": "firstName",
          "type": "string"
        },
        {
          "internalType": "string",
          "name": "lastName",
          "type": "string"
        },
        {
          "internalType": "string",
          "name": "position",
          "type": "string"
        },
        {
          "internalType": "string",
          "name": "addressInfo",
          "type": "string"
        }
      ],
      "name": "addCandidate",
      "outputs": [],
      "stateMutability": "nonpayable",
      "type": "function"
    },
    {
      "inputs": [
        {
          "internalType": "uint256",
          "name": "candidateID",
          "type": "uint256"
        }
      ],
      "name": "getCandidate",
      "outputs": [
        {
          "internalType": "string",
          "name": "firstName",
          "type": "string"
        },
        {
          "internalType": "string",
          "name": "lastName",
          "type": "string"
        },
        {
          "internalType": "string",
          "name": "position",
          "type": "string"
        },
        {
          "internalType": "string",
          "name": "addressInfo",
          "type": "string"
        },
        {
          "internalType": "uint256",
          "name": "voteCount",
          "type": "uint256"
        }
      ],
      "stateMutability": "view",
      "type": "function"
    }
  ],
  "bytecode": "0x60806040525f600255348015610013575f80fd5b50335f806101000a81548173ffffffffffffffffffffffffffffffffffffffff021916908373ffffffffffffffffffffffffffffffffffffffff160217905550611003806100605f395ff3fe608060405234801561000f575f80fd5b5060043610610055575f3560e01c80633477ee2e1461005957806335b8e8201461008d57806342b03cc9146100c1578063a9a981a3146100dd578063dc46d6ea146100fb575b5f80fd5b610073600480360381019061006e91906107f3565b610119565b6040516100849594939291906108b7565b60405180910390f35b6100a760048036038101906100a291906107f3565b610363565b6040516100b89594939291906108b7565b60405180910390f35b6100db60048036038101906100d69190610a50565b6105fe565b005b6100e5610786565b6040516100f29190610b24565b60405180910390f35b61010361078c565b6040516101109190610b7c565b60405180910390f35b6001602052805f5260405f205f91509050805f01805461013890610bc2565b80601f016020809104026020016040519081016040528092919081815260200182805461016490610bc2565b80156101af5780601f10610186576101008083540402835291602001916101af565b820191905f5260205f20905b81548152906001019060200180831161019257829003601f168201915b5050505050908060010180546101c490610bc2565b80601f01602080910402602001604051908101604052809291908181526020018280546101f090610bc2565b801561023b5780601f106102125761010080835404028352916020019161023b565b820191905f5260205f20905b81548152906001019060200180831161021e57829003601f168201915b50505050509080600201805461025090610bc2565b80601f016020809104026020016040519081016040528092919081815260200182805461027c90610bc2565b80156102c75780601f1061029e576101008083540402835291602001916102c7565b820191905f5260205f20905b8154815290600101906020018083116102aa57829003601f168201915b5050505050908060030180546102dc90610bc2565b80601f016020809104026020016040519081016040528092919081815260200182805461030890610bc2565b80156103535780601f1061032a57610100808354040283529160200191610353565b820191905f5260205f20905b81548152906001019060200180831161033657829003601f168201915b5050505050908060040154905085565b6060806060805f8060015f8881526020019081526020015f206040518060a00160405290815f8201805461039690610bc2565b80601f01602080910402602001604051908101604052809291908181526020018280546103c290610bc2565b801561040d5780601f106103e45761010080835404028352916020019161040d565b820191905f5260205f20905b8154815290600101906020018083116103f057829003601f168201915b5050505050815260200160018201805461042690610bc2565b80601f016020809104026020016040519081016040528092919081815260200182805461045290610bc2565b801561049d5780601f106104745761010080835404028352916020019161049d565b820191905f5260205f20905b81548152906001019060200180831161048057829003601f168201915b505050505081526020016002820180546104b690610bc2565b80601f01602080910402602001604051908101604052809291908181526020018280546104e290610bc2565b801561052d5780601f106105045761010080835404028352916020019161052d565b820191905f5260205f20905b81548152906001019060200180831161051057829003601f168201915b5050505050815260200160038201805461054690610bc2565b80601f016020809104026020016040519081016040528092919081815260200182805461057290610bc2565b80156105bd5780601f10610594576101008083540402835291602001916105bd565b820191905f5260205f20905b8154815290600101906020018083116105a057829003601f168201915b505050505081526020016004820154815250509050805f01518160200151826040015183606001518460800151955095509550955095505091939590929450565b5f8054906101000a900473ffffffffffffffffffffffffffffffffffffffff1673ffffffffffffffffffffffffffffffffffffffff163373ffffffffffffffffffffffffffffffffffffffff161461068b576040517f08c379a000000000000000000000000000000000000000000000000000000000815260040161068290610c62565b60405180910390fd5b60025f81548092919061069d90610cad565b91905055506040518060a001604052808581526020018481526020018381526020018281526020015f81525060015f60025481526020019081526020015f205f820151815f0190816106ef9190610e91565b5060208201518160010190816107059190610e91565b50604082015181600201908161071b9190610e91565b5060608201518160030190816107319190610e91565b50608082015181600401559050507f1908f3f8bf9e04cbee388cdea6025f92e954127dec768c7e092afb158071f0d060025485858585604051610778959493929190610f60565b60405180910390a150505050565b60025481565b5f8054906101000a900473ffffffffffffffffffffffffffffffffffffffff1681565b5f604051905090565b5f80fd5b5f80fd5b5f819050919050565b6107d2816107c0565b81146107dc575f80fd5b50565b5f813590506107ed816107c9565b92915050565b5f60208284031215610808576108076107b8565b5b5f610815848285016107df565b91505092915050565b5f81519050919050565b5f82825260208201905092915050565b5f5b8381101561085557808201518184015260208101905061083a565b5f8484015250505050565b5f601f19601f8301169050919050565b5f61087a8261081e565b6108848185610828565b9350610894818560208601610838565b61089d81610860565b840191505092915050565b6108b1816107c0565b82525050565b5f60a0820190508181035f8301526108cf8188610870565b905081810360208301526108e38187610870565b905081810360408301526108f78186610870565b9050818103606083015261090b8185610870565b905061091a60808301846108a8565b9695505050505050565b5f80fd5b5f80fd5b7f4e487b71000000000000000000000000000000000000000000000000000000005f52604160045260245ffd5b61096282610860565b810181811067ffffffffffffffff821117156109815761098061092c565b5b80604052505050565b5f6109936107af565b905061099f8282610959565b919050565b5f67ffffffffffffffff8211156109be576109bd61092c565b5b6109c782610860565b9050602081019050919050565b828183375f83830152505050565b5f6109f46109ef846109a4565b61098a565b905082815260208101848484011115610a1057610a0f610928565b5b610a1b8482856109d4565b509392505050565b5f82601f830112610a3757610a36610924565b5b8135610a478482602086016109e2565b91505092915050565b5f805f8060808587031215610a6857610a676107b8565b5b5f85013567ffffffffffffffff811115610a8557610a846107bc565b5b610a9187828801610a23565b945050602085013567ffffffffffffffff811115610ab257610ab16107bc565b5b610abe87828801610a23565b935050604085013567ffffffffffffffff811115610adf57610ade6107bc565b5b610aeb87828801610a23565b925050606085013567ffffffffffffffff811115610b0c57610b0b6107bc565b5b610b1887828801610a23565b91505092959194509250565b5f602082019050610b375f8301846108a8565b92915050565b5f73ffffffffffffffffffffffffffffffffffffffff82169050919050565b5f610b6682610b3d565b9050919050565b610b7681610b5c565b82525050565b5f602082019050610b8f5f830184610b6d565b92915050565b7f4e487b71000000000000000000000000000000000000000000000000000000005f52602260045260245ffd5b5f6002820490506001821680610bd957607f821691505b602082108103610bec57610beb610b95565b5b50919050565b7f4f6e6c792061646d696e2063616e20706572666f726d207468697320616374695f8201527f6f6e000000000000000000000000000000000000000000000000000000000000602082015250565b5f610c4c602283610828565b9150610c5782610bf2565b604082019050919050565b5f6020820190508181035f830152610c7981610c40565b9050919050565b7f4e487b71000000000000000000000000000000000000000000000000000000005f52601160045260245ffd5b5f610cb7826107c0565b91507fffffffffffffffffffffffffffffffffffffffffffffffffffffffffffffffff8203610ce957610ce8610c80565b5b600182019050919050565b5f819050815f5260205f209050919050565b5f6020601f8301049050919050565b5f82821b905092915050565b5f60088302610d507fffffffffffffffffffffffffffffffffffffffffffffffffffffffffffffffff82610d15565b610d5a8683610d15565b95508019841693508086168417925050509392505050565b5f819050919050565b5f610d95610d90610d8b846107c0565b610d72565b6107c0565b9050919050565b5f819050919050565b610dae83610d7b565b610dc2610dba82610d9c565b848454610d21565b825550505050565b5f90565b610dd6610dca565b610de1818484610da5565b505050565b5b81811015610e0457610df95f82610dce565b600181019050610de7565b5050565b601f821115610e4957610e1a81610cf4565b610e2384610d06565b81016020851015610e32578190505b610e46610e3e85610d06565b830182610de6565b50505b505050565b5f82821c905092915050565b5f610e695f1984600802610e4e565b1980831691505092915050565b5f610e818383610e5a565b9150826002028217905092915050565b610e9a8261081e565b67ffffffffffffffff811115610eb357610eb261092c565b5b610ebd8254610bc2565b610ec8828285610e08565b5f60209050601f831160018114610ef9575f8415610ee7578287015190505b610ef18582610e76565b865550610f58565b601f198416610f0786610cf4565b5f5b82811015610f2e57848901518255600182019150602085019450602081019050610f09565b86831015610f4b5784890151610f47601f891682610e5a565b8355505b6001600288020188555050505b505050505050565b5f60a082019050610f735f8301886108a8565b8181036020830152610f858187610870565b90508181036040830152610f998186610870565b90508181036060830152610fad8185610870565b90508181036080830152610fc18184610870565b9050969550505050505056fea2646970667358221220d10e3174f18ffd14979e8ba63bd69df54d82293ecc8da2f39f55ffa68900b8d464736f6c63430008150033",
  "immutableReferences": {},
  "source": "// SPDX-License-Identifier: MIT\r\npragma solidity ^0.8.0;\r\n\r\ncontract Election {\r\n    \r\n    // Struct to hold candidate details\r\n    struct Candidate {\r\n        string firstName;\r\n        string lastName;\r\n        string position;\r\n        string addressInfo; // Address as string\r\n        uint256 voteCount;\r\n    }\r\n\r\n    // Address of the election authority (admin)\r\n    address public electionAuthority;\r\n\r\n    // Mapping to store candidates with an incremental ID\r\n    mapping(uint256 => Candidate) public candidates;\r\n    uint256 public candidateCount = 0;\r\n\r\n    // Modifier to restrict certain functions to only the admin (electionAuthority)\r\n    modifier onlyAdmin() {\r\n        require(msg.sender == electionAuthority, \"Only admin can perform this action\");\r\n        _;\r\n    }\r\n\r\n    // Constructor to initialize the contract with the admin's address\r\n    constructor() {\r\n        electionAuthority = msg.sender; // Deployer of the contract is the electionAuthority\r\n    }\r\n\r\n    // Event to log candidate addition\r\n    event CandidateAdded(\r\n        uint256 candidateID,\r\n        string firstName,\r\n        string lastName,\r\n        string position,\r\n        string addressInfo\r\n    );\r\n\r\n    // Function to add a candidate (Only admin can add)\r\n    function addCandidate(\r\n        string memory firstName,\r\n        string memory lastName,\r\n        string memory position,\r\n        string memory addressInfo\r\n    ) public onlyAdmin {\r\n        candidateCount++; // Increment candidate ID\r\n        candidates[candidateCount] = Candidate({\r\n            firstName: firstName,\r\n            lastName: lastName,\r\n            position: position,\r\n            addressInfo: addressInfo,\r\n            voteCount: 0 // Initialize vote count to zero\r\n        });\r\n\r\n        // Emit event when a candidate is added\r\n        emit CandidateAdded(\r\n            candidateCount,\r\n            firstName,\r\n            lastName,\r\n            position,\r\n            addressInfo\r\n        );\r\n    }\r\n\r\n    // Function to get candidate details by ID\r\n    function getCandidate(uint256 candidateID) public view returns (\r\n        string memory firstName,\r\n        string memory lastName,\r\n        string memory position,\r\n        string memory addressInfo,\r\n        uint256 voteCount\r\n    ) {\r\n        Candidate memory candidate = candidates[candidateID];\r\n        return (\r\n            candidate.firstName,\r\n            candidate.lastName,\r\n            candidate.position,\r\n            candidate.addressInfo,\r\n            candidate.voteCount\r\n        );\r\n    }\r\n}\r\n",
  "sourcePath": "C:\\Users\\Dell\\Desktop\\QuickVote\\Ethereum\\contracts\\addCandidates.sol",
  "compiler": {
    "name": "solc",
    "version": "0.8.21+commit.d9974bed.Emscripten.clang"
  },
  "schemaVersion": "3.4.16",
  "updatedAt": "2024-09-28T13:32:47.371Z",
  "devdoc": {
    "kind": "dev",
    "methods": {},
    "version": 1
  },
  "userdoc": {
    "kind": "user",
    "methods": {},
    "version": 1
  }
}